:020000040800F2
:1000000000C00020A5030008910D0008950D000810
:10001000990D00089D0D0008A10D0008DF140008CF
:10002000DF140008DF140008DF140008DF140008E4
:10003000DF140008DF140008DF140008F1140008C2
:10004000DF140008DF140008DF140008DF140008C4
:10005000DF140008DF140008E50D0008050E000895
:10006000250E0008450E0008650E0008350C000836
:100070004D0C0008650C0008810C00089D0C000860
:10008000B90C0008D50C0008F9090008DF140008B5
:1000900015210008DF140008DF140008850E000891
:1000A00025180008491800086D180008A518000850
:1000B000F918000869190008D9190008B1110008D9
:1000C000C9110008BD110008D5110008DF1400088F
:1000D000DF140008811E0008D11E0008211F00083F
:1000E000C90E0008DF140008DF140008011B000817
:1000F000251B0008491B0008811B0008510A000845
:10010000DF140008DF140008491A0008DF14000893
:10011000711F0008C11F0008B91A0008DD1A000885
:10012000F10C0008090D0008210D00083D0D000824
:1001300010B5054C237833B9044B13B10448AFF321
:1001400000800123237010BD181000200000000063
:1001500090BD020808B5034B1BB103490348AFF338
:10016000008008BD000000001C10002090BD0208A7
:1001700010B512490A2309220968114800F0EAF96A
:1001800010490323022209680F4800F0E3F90F49E0
:100190001B231A2209680E4800F0DCF90D492B23B5
:1001A0002A2209680C4800F0D5F9BDE810400B4937
:1001B00032232C2209680A4800F0CCB984020020BE
:1001C00034100020880200204C1000208C020020F7
:1001D000641000207C0200207C100020800200209F
:1001E0009410002010B5044600F088FC034B204614
:1001F000BDE81040197800F0E8BB00BF16000020F1
:10020000F8B50446056801F0CFF9002223685B01C8
:1002100003F184431A6080232B600123AB622A61BF
:10022000EA606B61637973B1012B0FD001222368FF
:100230005B0103F18443C3F8802223685B0103F16F
:1002400084431A60F8BD4FF400436B644FF6FF72AD
:1002500000252368DA626E1CF7B23946204601F0A9
:10026000B9F9E8B148F6FF72236817F0010F03F1FE
:10027000340343F8252014BF6FF0FF026FF47F4270
:1002800023684FEA650503F1180353F8251001EAC6
:10029000020114BF68224FF4D0420A4343F82520DC
:1002A000042E3546D7D1C1E77047000038B5002588
:1002B000264A274C1368022043F01003136000F015
:1002C00025FE002000F0E2FF65602368182023F47B
:1002D0000023236000F0E6FF102000F0E3FF00F0B1
:1002E00043F8A560102000F0D1FF102000F0F7FFC8
:1002F0000028FAD000F039F8164800F0FDFF182069
:1003000000F0C4FF182000F0EAFF0028FAD0022015
:1003100000F0ACFF00214FF0006000F08BFF0E48B2
:1003200001F0DEF800F038F80C4B188800F0CEFB36
:100330000B4800F0CFFB0B4801F010F900F02EF84D
:1003400000F02DF8FFF7B0FF38BD00BF00200240DD
:10035000001002400C0000203F1901001400002092
:10036000E5010008010200087047002108B50846B1
:1003700001F010F84FF48061012001F00BF800212A
:10038000022001F007F82D2001F014F8BDE8084024
:100390000021032000F0FEBF00F0CCBD704700F04C
:1003A00008BE000001498D460149084700C00020F1
:1003B000B503000808B5114B1A68114B9A4213D1C6
:1003C000104B114A934213D324F0A6FD002211468C
:1003D000104602F039FE0D4B7BB124F039FB52F888
:1003E000041B043343F8041C09498B42F7D3E7E7A5
:1003F0000022043343F8042CE3E7FEE7E81B03087C
:10040000000000201810002008360020514A020881
:100410001810002010B50D4B1A680AB90C4A1A6062
:100420001A680C49891A814204DB09494442511A6D
:10043000A14207DA24F006FB0C234FF0FF320360E1
:10044000104610BD10441860FAE700BFAC10002041
:1004500008360020A88F0328002070474FF400536F
:1004600000204B607047012070474FF0FF3070470D
:100470000020704710B50C46FFF7FAFF20700120EE
:1004800010BD704770B515460C468E18B44201D1A8
:10049000284670BD14F8010BFFF7F3FFF6E7FEE7FF
:1004A000C38882889B1AC2888188914282BF028950
:1004B00001329B1898B2704710B50369044658681A
:1004C000FFF7EEFF88B123695B689A88196892B2DA
:1004D000885C99881A89C0B292B28A420FBF002202
:1004E0009A88013292B29A8010BD4FF0FF30FBE73C
:1004F00008B503695868FFF7D3FF08BD03695B6857
:100500009988DA8892B28A421FBF9A881B6892B291
:10051000985C14BFC0B24FF0FF3070470269916819
:100520008888CB889BB28342FAD1126813685B0635
:10053000FCD5704713B504698DF8071001220DF141
:100540000701204601F091FB0028F7D0012002B0FE
:1005500010BD000030B54FF0000C4FF47A75C0E9C3
:1005600001C5034D016105600275437530BD00BFD3
:10057000E0D202082DE9F74303690446DB688846A8
:100580008B42914625D3067D134D3601AB19477D2D
:10059000586818B10022597B01F0DEF8206901F09B
:1005A00019FB39016A18127BAB19CDF804901B7B3B
:1005B000695800932069AB5901F0F5FB2069424668
:1005C000002101F017FC206903B0BDE8F04301F001
:1005D00027BB03B0BDE8F083A8CF02080022FFF7D5
:1005E000C9BF0000044B02791B789A4202BF034B3B
:1005F0001B681860704700BFD0100020D410002086
:10060000002310B50446036072B6094B1931197006
:10061000084B1860084800F0A1FF62B6236823B9B0
:10062000064A4421064802F0CDFC204610BD00BF1A
:10063000D0100020D4100020E5050008FCD20208EC
:100640000ED3020808B501211048FFF7D9FF022197
:100650000F48FFF7D5FF03210E48FFF7D1FF042114
:100660000D48FFF7CDFF05210C48FFF7C9FF062114
:100670000B48FFF7C5FF07210A48FFF7C1FFBDE898
:10068000084008210848FFF7BBBF00BFB01000209A
:10069000B4100020B8100020BC100020C0100020B2
:1006A000C4100020C8100020CC100020F8B5064669
:1006B0000C4615468F18A74206D0336814F8011B64
:1006C0001B6830469847F6E72846F8BD70B50546E2
:1006D0000C46084649B125F0DBFC2B680246214652
:1006E0002846BDE870409B68184770BD0368C9B2D2
:1006F0001B68184703685B68184738B50D21054625
:10070000FFF7F4FF0A2104462846FFF7EFFF2044D5
:1007100038BD38B50546FFF7EDFF04462846FFF71C
:10072000ECFF204438BD2DE970439046994690B0C7
:1007300058EA090306469DF8585007D13021FFF7C3
:10074000D5FF0125284610B0BDE87083002440463F
:1007500049462A4600231AF065F880468946013446
:100760000DEB040303F8012C58EA0903EFD100252F
:10077000013C1DF804103046092994BF303137314F
:1007800049B2FFF7B3FF0544002CF1D1DAE72DE9B8
:10079000F0411D46002A75F1000307461446069EE7
:1007A00005DA2D21FFF7A2FF644265EB4505F6B29D
:1007B000069622462B463846BDE8F041FFF7B3BF08
:1007C00007B5CB1700920A46FFF7E1FF03B05DF8CB
:1007D00004FB38B50546FFF7F3FF04462846FFF74C
:1007E0008CFF204438BD07B5CB1700920A46FFF7AF
:1007F000CEFF03B05DF804FB37B5CB1700920A4675
:100800000546FFF7C4FF04462846FFF776FF20445D
:1008100003B030BD07B5D2B2009200230A46FFF7FD
:1008200082FF03B05DF804FB37B5D2B2009200231B
:100830000A460546FFF777FF04462846FFF75DFFA7
:10084000204403B030BD00002DE9F34717461E4693
:100850008246002200233846314619F0C1FB9DF83C
:1008600028504FF00104F8B143A3D3E900233846E0
:10087000314619F0ABFB00B90446E4B20022002374
:1008800038463146C4B119F08DFB18B12D215046C0
:10089000FFF72CFF04463C495046FFF72BFF04446A
:1008A000204602B0BDE8F08735A3D3E900233846DF
:1008B000314619F081FBDEE719F074FB30B12D21D0
:1008C0005046FFF713FF044606F100464FF00008BC
:1008D00000202E495FFA88F39D4206D900222C4B56
:1008E00019F018FA08F10108F4E73A46334618F00F
:1008F00031FF06460F4619F0ADFF0A23024600936A
:1009000080460B4650468946FFF741FF0444002DC0
:10091000C6D04046494619F0A5F802460B46304677
:10092000394618F015FF06460F4650461949FFF79D
:10093000E1FE0444013DEDB2FF2DB1D0144B002285
:100940003046394619F0BCF80F46064619F052FBFE
:100950000A22014680465046FFF732FF04444046D3
:1009600019F044F802460B463046394618F0F0FEBE
:1009700006460F46DEE700BF800350726C92DF43ED
:10098000800350726C92DFC378D302080000E03F0E
:1009900000002440EAF302089DF800100091FFF7E0
:1009A00053BF704710B50446007900F0C1FC2079B0
:1009B000BDE8104000F0D4BC026841F48011936897
:1009C00023F46023194391607047002330B51C461F
:1009D0001D4603EB4302072B01FA02F203F1010368
:1009E000D8BF15430A2B44EA0204F2D10368DD6044
:1009F00003681C6130BD000070B5144C23681B688F
:100A00001D68A90707D51A6822F002021A60236838
:100A10009B6803B198476A0709D523681A68136869
:100A200023F00403136023681B6903B19847EB07A5
:100A30000BD523681A68136823F001031360236839
:100A4000DB6813B1BDE87040184770BD1C00002082
:100A500070B5144C23681B681D68A90707D51A6870
:100A600022F002021A6023689B6803B198476A0764
:100A700009D523681A68136823F0040313602368F8
:100A80001B6903B19847EB070BD523681A681368F5
:100A900023F0010313602368DB6813B1BDE87040E5
:100AA000184770BD24000020012203685B0103F198
:100AB000844303F58673191F1A6018680028FCD157
:100AC00043F8042C0B68002BFCD17047014604202E
:100AD00000F060BC10B50446054B1868A047054BF4
:100AE0001868A047044B18682346BDE81040184713
:100AF0001C000020200000202400002010B5044627
:100B0000FFF750FF20464FF46021FFF755FF012209
:100B1000236820465B0103F18443C3F85021236816
:100B20005B0103F18443C3F80021BDE81040FFF7E7
:100B3000BBBF007900F0FCBB70B5142401394C43F5
:100B40000368054608331B591646DB0704D5074AD8
:100B5000DC21074802F036FA2B6808331A5922F4D0
:100B6000405242EA06321A5170BD00BF87D30208D4
:100B7000ADD3020870B5142401394C43036805460F
:100B800008331B591646DB0704D5054AEA210548F8
:100B900002F018FA2968083121444E6070BD00BF88
:100BA00087D30208ADD3020800EBC10340F831201F
:100BB00093F90430002B08DB0122591103F01F03C5
:100BC00002FA03F3014A42F82130704700E100E0E5
:100BD00014220368013902FB01310123490101F1AB
:100BE0008441C1F80031704714220368013902FBC7
:100BF00001310023490101F18441C1F800317047FE
:100C00002DE9F04114251C4690464B1E5D430668B5
:100C1000FFF7EAFF9DF81C30240244EA8324089B76
:100C200008361C43069B77197451FB60C7F808808F
:100C3000BDE8F08110B5044B1C68A3681BB1984750
:100C4000012223685A6010BD6000002010B5044BDB
:100C50001C6823691BB19847102223685A6010BD95
:100C60006000002010B5054B1C68A36923B19847AC
:100C70004FF4807223685A6010BD00BF60000020EE
:100C800010B5054B1C68236A23B198474FF4805276
:100C900023685A6010BD00BF6000002010B5054BEE
:100CA0001C68A36A23B198474FF4803223685A60C6
:100CB00010BD00BF6000002010B5054B1C68236B01
:100CC00023B198474FF4801223685A6010BD00BFCB
:100CD0006000002010B5054B1C68A36B23B198473A
:100CE0004FF0807223685A6010BD00BF6000002082
:100CF00010B5044B1C68A3681BB1984701222368F8
:100D00005A6010BD6400002010B5044B1C682369B4
:100D10001BB19847102223685A6010BD6400002060
:100D200010B5054B1C68A36923B198474FF4807236
:100D300023685A6010BD00BF6400002038B5104C15
:100D4000636CD8070BD52368D90408D50D4B1D68F3
:100D50002B6A23B198474FF480522B685A60A36DD9
:100D6000DA070BD52368DB0308D5064B1C68A36A9A
:100D700023B198474FF4803223685A6038BD00BFD2
:100D80000004024064000020000000000000000099
:100D9000012007E0022005E0032003E0042001E039
:100DA0000520FFE70D4A0121116072B60C4A0021AF
:100DB0001160074902B4084902B486B005498E465D
:100DC000704700BFAFF30080AFF30080AFF3008047
:100DD00000000061F9FFFFFFB12F000814ED00E0F3
:100DE00010E000E008B5054A136833B15068984731
:100DF0000122034B5A6100BF00BF08BDD81000207C
:100E00000004014008B5054A936833B1D06898479B
:100E10000222034B5A6100BF00BF08BDD81000205A
:100E20000004014008B5054A136933B15069984779
:100E30000422034B5A6100BF00BF08BDD810002038
:100E40000004014008B5054A936933B1D069984759
:100E50000822034B5A6100BF00BF08BDD810002014
:100E60000004014008B5054A136A33B1506A984737
:100E70001022034B5A6100BF00BF08BDD8100020EC
:100E8000000401402DE9F041002705240C4DD5F860
:100E900014800126A64018EA060F08D0094BE1008D
:100EA00053F834201AB10B44586890473743013443
:100EB0000A2CEED16F6100BF00BFBDE8F08100BF1A
:100EC00000040140D81000202DE9F04100270A2439
:100ED0000C4DD5F814800126A64018EA060F08D05C
:100EE000094BE10053F834201AB10B44586890477D
:100EF00037430134102CEED16F6100BF00BFBDE855
:100F0000F08100BF00040140D8100020034A13689C
:100F100023F0070318431060704700BF0020024011
:100F200010B50446007900F003FA2079BDE81040BE
:100F300000F016BA08B50748FFF7F2FF0648FFF7BA
:100F4000EFFF0648FFF7ECFFBDE808400448FFF755
:100F5000E7BF00BFD8000020E0000020E80000202C
:100F6000F000002070B50F250368CE0801F00700DF
:100F7000840053F82600092A05FA04F520EA05053D
:100F800014BF10460820A0402843082A43F8260032
:100F900007D10120DA6800FA01F122EA0101D960E3
:100FA00070BD092AFCD10122D86802FA01F101437F
:100FB000F5E708B5032000F0BBF9BDE808400320C1
:100FC00000F0CEB903681A6812F4985FFBD11A6872
:100FD00042F480721A60704703681A6812F4985FCE
:100FE000FBD11A6842F400721A600268136813F4A5
:100FF000985FFBD17047000070B502684668516980
:1010000092695D4AB5781268CB07044605F0010580
:10101000C26014D50023F38000F0E2F82268536820
:1010200043F48063536025B12268136843F48063FE
:10103000136000213388226845EA4303136111F0ED
:101040000A0F10D0B388002D58D0012B0AD1226886
:101050002046136823F480631360A38B012B4AD9C5
:10106000FFF7B0FF002101F08402802A16D1A58B82
:10107000002D5CD0F388B1685A1CF2802268CB5CEA
:101080001361F288B3889A4207D12268536823F427
:1010900080635360A38B013BA383002101F0840292
:1010A000842A0DD1A18B2046002947D0FFF78AFF63
:1010B00022685369D907FCD5002163680C3363604B
:1010C0004B0654D52368B2681969F388581CF08020
:1010D000D154B388F288591E8A423ED122682046F4
:1010E000136823F480631360A38B022B31D9BDE80E
:1010F0007040FFF767BFFFF76FFFB3E7012B08D919
:10110000F388B1685A1CF2802268CB5C13612946CF
:10111000A9E7002BFBD12046FFF75EFF226853684A
:1011200023F400735360022384F823309AE7134AB0
:1011300040F28511124801F045FFAEE7FFF74CFF82
:101140002268536823F400735360022384F8233029
:10115000B6E7BDE87040FFF73FBF9A4207D1A38BC7
:10116000013B9BB2A3831BB9022384F8233070BDDB
:1011700063680C336360FAE7A0350020A7E102083A
:101180003DD4020808B50268536903F470638360B4
:101190000023536102689361FFF71EFF02685368E2
:1011A00023F4E0635360FF2380F8233008BD000080
:1011B0000148FFF721BF00BFF80000200148FFF7FA
:1011C0001BBF00BF1C0100200148FFF7DBBF00BFB1
:1011D000F80000200148FFF7D5BF00BF1C01002028
:1011E00010B50446002190F9210000F00FF894F9A1
:1011F00022000021BDE8104000F008B84AF6AA22FB
:10120000014B1A60704700BF003000400028A8BFA3
:1012100000F160404FEA0111B8BF054BC9B2B5BF3C
:1012200000F00F0000F56140195480F8001370477A
:1012300014ED00E010B5002421F0604121F07F01A1
:10124000064A0143916060B20F210134FFF7DEFFCF
:101250003C2CF8D1F02382F8233010BD00ED00E0E3
:10126000014B13F81000704778D50208064B5A68F6
:1012700022F0030202435A6080005A6802F00C0216
:101280008242FAD1704700BF00100240030AC2B286
:10129000012003F1804303F50433196890400843AB
:1012A000186070470121030A03F1804303F50433FA
:1012B0001A68C0B201FA00F022EA00001860704714
:1012C000030A03F1804303F504331A680123C0B213
:1012D00003FA00F0104214BF184600207047030ABA
:1012E00003F1804303F504331A680223C0B203FA02
:1012F00000F010407047000038B5436805461820DC
:101300001C68FFF7DDFF20B1064A8321064801F083
:1013100059FE064A2968536823F474130B43234388
:10132000536038BD5CD50208F2D4020800100240B8
:1013300010B50446FFF794FF074B53F820200748E9
:1013400000EB4400437803EBC20301229B0003F14E
:1013500084431A6010BD00BF4001002078D5020808
:1013600010B50446FFF77CFF084B53F820200848CF
:1013700000EB4400437803EBC20301229B0003F11E
:1013800084431A6000221A6010BD00BF580100207B
:1013900078D5020810B5054A054C536854F820006A
:1013A00023EA00030B43536010BD00BF001002404E
:1013B000A4D4020810B50446FFF752FF074B53F8B8
:1013C0002020074800EB4400437803EBC2030022CF
:1013D0009B0003F184431A6010BD00BF4C01002044
:1013E00078D5020801EBC000800000F18440026063
:1013F000704710B504460079FFF79AFF2079BDE8E1
:101400001040FFF7ADBF012206210068FFF7EABFD9
:10141000002206210068FFF7E5BF10B50C46016801
:1014200003464A6822F0E0024A600268126862409D
:1014300012F4205F01D0FFF7EBFF1A681846146022
:10144000BDE81040FFF7DFBF134343F00403194327
:10145000FFF7E3BF0122006811460430FFF7C2BF67
:101460000068002201210430FFF7BCBF00680122A0
:1014700000210430FFF7B6BF002203685B0103F1CF
:101480008443C3F880207047F8B51046069C9DF849
:101490001C709DF820609DF8245081B10B223946C4
:1014A0002046FFF75FFD042231462046FFF75AFD34
:1014B0000B2229462046BDE8F840FFF753BD1946E8
:1014C0000422FFF74FFD042239462046FFF74AFD6C
:1014D0000B2231462046FFF745FD0422E9E7FEE7EF
:1014E0000722024B58601A60704700BF10E000E00E
:1014F000044A136801331360034B1B6803B1184798
:10150000704700BFA03500205811002011F0010FD6
:1015100070B501F1FF340DBF082500256FF0FF0104
:101520006FF47F410068C4F34004183050F8246021
:1015300013433140AB400B4340F8243070BD026888
:101540004B1E02F1404220329B0003EBC2030122FA
:101550009B0003F184431A607047000010B50446F5
:101560000948A0470948A0470948A0470948A0479B
:101570000948A0470948A0470948A0472346BDE8B5
:1015800010400848184700BF84010020AC0100202B
:10159000D0010020F4010020180200203C020020AD
:1015A000480200205402002010B504460079FFF7DD
:1015B000BFFE2079BDE81040FFF7D2BE00230268CD
:1015C00013600268D3604279012A9CBF02681362EB
:1015D0007047000038B54B1E032B0C46057905D922
:1015E0000E4A40F205110E4801F0ECFC1E2D10D9F8
:1015F000212D0ED0202D0ED9222D01D0252D04D144
:10160000022C8CBF0020012038BD631E5842584177
:10161000FAE70120F8E70020F6E700BFD4D502087A
:10162000F5D502088B1C10B440F823200123427921
:101630008B40DB43F2B1012A41F65F6218BF012201
:101640001340012204682361036803F140430C3313
:1016500001EBC3039B0003F184431A6042790379D1
:10166000002A2FD1072926D8DFE801F00716161621
:10167000161B1B2041F6FF62E2E71A2B0CBF192351
:101680002C230122590903F01F0302FA03F3214A14
:1016900042F8213010BC70471A2B0CBF1B232E239D
:1016A000EFE71A2B0CBF1A232D23EAE71A2B0CBFE6
:1016B00018232B23E5E74FF4CA71174A174810BCCB
:1016C00001F080BC1B3B0C2B1CD8DFE803F01F078C
:1016D00021090B0D1B0F1113151719001D23D0E73E
:1016E0003223CEE73623CCE73723CAE71823C8E7EF
:1016F0001923C6E71A23C4E72B23C2E72C23C0E72C
:101700002D23BEE7044A4FF4E271D7E71C23B8E764
:101710001E23B6E700E100E0A7E10208F5D50208C4
:101720000022036803F140430C3301EBC3039B0029
:1017300003F1844302311A6040F82120704738B524
:1017400004460D4613460022FFF7E0FE29462046D8
:10175000BDE83840FFF7F3BEF8B54D1EEBB2032BE2
:1017600004460E46174604D92B4AD9212B4801F0CE
:1017700029FC6379022B04D1294ADC21274801F096
:1017800021FC6379022B16D0042F14D8DFE807F070
:1017900003142B2E3C0031462046FFF7C1FF23687F
:1017A000AD0003F14043203305EBC3050023AD003A
:1017B00005F184452B60F8BD0022236803F1404306
:1017C0000C3306EBC3039B0003F184431A60082328
:1017D000602231462046FFF799FE31462046BDE89B
:1017E000F840FFF7ACBE00231022F2E74FF2F112EF
:1017F00023689A61032223689A60012223685B01AF
:1018000003F184431A60D6E731462046BDE8F8402C
:101810000122FFF794BF00BF5ED60208F5D502088B
:101820007AD6020810B5074A1468E36821690B40AC
:101830001B0606D5536A23B19847236923F080031A
:10184000236110BD8401002010B5074A1468E368C5
:1018500021690B40DB0706D5936823B198472369BC
:1018600023F00103236110BD84010020F8B50C4D65
:101870002F68FE683B691E4016F0400403D02C6AB6
:101880000CB1A0474024B30604D5EB6913B19847C7
:1018900044F020043B6923EA04043C61F8BD00BF26
:1018A00084010020F8B5134D2F68FE683B691E4087
:1018B00016F0100403D0AC690CB1A0471024310716
:1018C00004D56B6913B1984744F00804720704D536
:1018D0002B6913B1984744F00404B30704D5EB68AF
:1018E00013B1984744F002043B6923EA04043C61C5
:1018F000F8BD00BF84010020F8B51A4D2F68FE68BE
:101900003B691E4016F0400403D02C6A0CB1A0477E
:101910004024F30604D5AB6913B1984744F0100492
:10192000300704D56B6913B1984744F00804710778
:1019300004D52B6913B1984744F00404B20704D5C9
:10194000EB6813B1984744F00204F30704D5AB6881
:1019500013B1984744F001043B6923EA04043C6155
:10196000F8BD00BFAC010020F8B51A4D2F68FE6825
:101970003B691E4016F0400403D02C6A0CB1A0470E
:101980004024F30604D5AB6913B1984744F0100422
:10199000300704D56B6913B1984744F00804710708
:1019A00004D52B6913B1984744F00404B20704D559
:1019B000EB6813B1984744F00204F30704D5AB6811
:1019C00013B1984744F001043B6923EA04043C61E5
:1019D000F8BD00BFD0010020F8B51A4D2F68FE6891
:1019E0003B691E4016F0400403D02C6A0CB1A0479E
:1019F0004024F30604D5AB6913B1984744F01004B2
:101A0000300704D56B6913B1984744F00804710797
:101A100004D52B6913B1984744F00404B20704D5E8
:101A2000EB6813B1984744F00204F30704D5AB68A0
:101A300013B1984744F001043B6923EA04043C6174
:101A4000F8BD00BFF4010020F8B51A4D2F68FE68FC
:101A50003B691E4016F0400403D02C6A0CB1A0472D
:101A60004024F30604D5AB6913B1984744F0100441
:101A7000300704D56B6913B1984744F00804710727
:101A800004D52B6913B1984744F00404B20704D578
:101A9000EB6813B1984744F00204F30704D5AB6830
:101AA00013B1984744F001043B6923EA04043C6104
:101AB000F8BD00BF1802002010B5074A1468E3689B
:101AC00021690B40DB0706D5936823B1984723694A
:101AD00023F00103236110BD3C02002010B5074A2A
:101AE0001468E36821690B40DB0706D5936823B1CE
:101AF0009847236923F00103236110BD48020020A9
:101B000010B5074A1468E36821690B401B0606D527
:101B1000536A23B19847236923F08003236110BDE2
:101B20005402002010B5074A1468E36821690B408D
:101B3000DB0706D5936823B19847236923F0010397
:101B4000236110BD54020020F8B50C4D2F68FE68CB
:101B50003B691E4016F0400403D02C6A0CB1A0472C
:101B60004024B30604D5EB6913B1984744F0200430
:101B70003B6923EA04043C61F8BD00BF5402002025
:101B8000F8B5134D2F68FE683B691E4016F010042F
:101B900003D0AC690CB1A0471024310704D56B69A0
:101BA00013B1984744F00804720704D52B6913B1A8
:101BB000984744F00404B30704D5EB6813B1984781
:101BC00044F002043B6923EA04043C61F8BD00BF11
:101BD0005402002000223F2110B504464368103013
:101BE0009A801860DA801981A3689A80DA8004F1FB
:101BF000500219811A6094F89000FFF799FB94F94C
:101C00009130002B08DB0122591103F01F0302FA67
:101C100003F3024A42F8213010BD00BF00E100E0AA
:101C20000368DA6842F02C02DA60DA6842F40052A3
:101C3000DA60704710B5036881688C88CA8892B2F0
:101C4000A242FAD1DA68910402D51A685206F9D58F
:101C5000DA6822F40052DA60426893889BB2D3803B
:101C6000826893889BB2D38010BDF0B50B460646C0
:101C70000468B568581AAF88ED88ADB2BD4204D18A
:101C800025682D0601D5824210D8E36823F0800331
:101C9000E3609042B3680DD39A88DB889BB293428D
:101CA0001EBFE36843F08003E360F0BD13F8010B4F
:101CB0006060DEE7DD889F880135BD42ECD0DF88BB
:101CC0001D89ADB2BD4203D19D88ADB2002DE3D0D8
:101CD000DD8811F800C01F68ADB207F805C0DF88C5
:101CE0001D890130ADB2BD420FBF0025DD88013531
:101CF000ADB2DD80CDE77FB5064600240A23B1FBF7
:101D0000F3F203FB1213013401AD2819303300F84C
:101D1000013C1146002AF1D114F1FF3401D204B084
:101D200070BD2B5D8DF8033001220DF103013046AB
:101D3000FFF79BFF0028F7D0EEE703468288016893
:101D400092B2885C99881A89C0B292B28A420FBF57
:101D500000229A88013292B29A80704738B5C388BF
:101D600082880133934204460D4607D0C288038916
:101D70009BB2934214D183889BB28BB92046FFF764
:101D8000DCFFE38822689BB2D554E28823899BB2AA
:101D900093420FBF0023E38801339BB2E38038BD39
:101DA0004FF0FF30EDE770B51E4605460846114678
:101DB0000422059CFFF7D6F80B229DF81010304640
:101DC000FFF7D0F829686302CA6803F4F05322F4DD
:101DD000F0521204120C1343CB602A6824021369D8
:101DE00004F4405423F440531B041B0C1C431461A3
:101DF00070BD000070B5064615460C4641B900F0AE
:101E000007F9044620B90D4AAE210D4801F0DAF871
:101E100019226243AD006421B2FBF5F2B2FBF1F08E
:101E200001FB10231B013233B3FBF1F303F00F036B
:101E3000346843EA00139BB2A36070BD93D60208D6
:101E40009FD6020810B50446084B1868A047084BF7
:101E50001868A047074B1868A047074B1868A047A9
:101E6000064B18682346BDE810401847840200203E
:101E7000880200208C0200207C02002080020020CA
:101E800010B5104CE368980607D52368990604D569
:101E900061680D48C9B2FFF761FFE3681A060BD508
:101EA00023681B0608D509488288C3889BB29342E1
:101EB00003D0FFF742FF606010BDE36823F08003AA
:101EC000E360F9E7003801408C11002098110020F0
:101ED00010B5104CE368980607D52368990604D519
:101EE00061680D48C9B2FFF739FFE3681A060BD5E0
:101EF00023681B0608D509488288C3889BB2934291
:101F000003D0FFF71AFF606010BDE36823F0800381
:101F1000E360F9E700440040A4110020B011002064
:101F200010B5104CE368980607D52368990604D5C8
:101F300061680D48C9B2FFF711FFE3681A060BD5B7
:101F400023681B0608D509488288C3889BB2934240
:101F500003D0FFF7F2FE606010BDE36823F080035A
:101F6000E360F9E700480040BC110020C8110020E0
:101F700010B5104CE368980607D52368990604D578
:101F800061680D48C9B2FFF7E9FEE3681A060BD590
:101F900023681B0608D509488288C3889BB29342F0
:101FA00003D0FFF7CAFE606010BDE36823F0800332
:101FB000E360F9E7004C00405C110020681100204C
:101FC00010B5104CE368980607D52368990604D528
:101FD00061680D48C9B2FFF7C1FEE3681A060BD568
:101FE00023681B0608D509488288C3889BB29342A0
:101FF00003D0FFF7A2FE606010BDE36823F080030A
:10200000E360F9E7005000407411002080110020C7
:1020100008B590F89000FFF723F920B10128034894
:1020200018BF002008BD0248FCE700BF00A24A0418
:102030000051250230B548F28005094C226822F48F
:10204000804222F070022A4342402260236823F437
:10205000E04323F040032B434B40236030BD00BFDF
:10206000005C0040284B072818BF18701A78052A12
:1020700048D8DFE802F003131E232B364FF6FB711E
:10208000224A106C014011644FF43F411164062252
:102090001A701F4B1B685A7B1A7370474FF6FB71FF
:1020A0001A4A106C014011644FF43F41116404223C
:1020B00002E002225A7003221A7006E05A78013AAE
:1020C000D2B25A705A78002AF1D070470F490A6C80
:1020D00092B242F010020A6405221A700A225A7063
:1020E00070475A78013AD2B25A705A78002AECD125
:1020F0004FF6EF720549086C02400A64044A126800
:10210000517B11730622D7E7A8350020005C004000
:10211000740500202DE9F041694D6A4A2B68546C22
:102120001B68A4B223405E0506D56FF48063536438
:10213000654B1B685B6898472A68136823409804BE
:1021400042BF6FF400515F4B596413682340D904B8
:1021500006D56FF4C0525B4B00205A64FFF782FF34
:102160002B681A68224012050FD556490A6C92B2A4
:1021700042F0080042F00C0208640A641A7B5A73A9
:1021800003221A736FF4C0524A641A6822409705FA
:1021900042BF6FF400714B4A51641B682340DE0557
:1021A00006D56FF48072474B07205A64FFF75AFF39
:1021B0002B681B681C40240403D5424C676C3B040D
:1021C00001D4BDE8F0816FF4004317F00F0663649B
:1021D0004CD148F68003D4F8008018EA030FECD005
:1021E0001FFA88F3394D3A4E03F440524FF4005031
:1021F00003F03003202133802A80FFF71BFFF8060D
:1022000008F0800317D42BB9324A4FF4A271324838
:1022100000F0D8FE2B4A136823F4E14323F0700347
:102220001B041B0C136000F0A9FD31882888BDE851
:10223000F041FFF7FFBE43B1236823F4E14323F0ED
:1022400070031B041B0C2360EDE7236818F4006F78
:1022500023F070034FEA03534FEA1353236002D075
:1022600000F0AAFBE1E700F007FDDEE7B40004F1AF
:10227000804404F5B844276839040DD5236823F059
:1022800070031B051B0D23602A6806F180439268CA
:10229000013B52F8233098473A068ED5236806F161
:1022A000804623F4E14323F070031B041B0C2360DE
:1022B0002B68013E5B6853F8263098477DE700BFE6
:1022C00074050020005C0040B0350020A4350020DB
:1022D000A63500200BD702081FD70208800000F1A6
:1022E000804000F5B840036823F4804323F0700376
:1022F00043F4004343F080035940016070470000FD
:1023000018B90722024B1B681A820248704700BFA7
:10231000D8350020E40500200022012110B5104B23
:102320001B689A720F4B19640F49086802600868AD
:1023300004681C644FF4E0545A640460086804683C
:102340001C644FF43F445A640460086800681864D1
:102350004FF48010054B18600B681A7310BD00BF56
:10236000D8350020005C00407405002000E100E04A
:1023700013B5104B1A68137803F07F03212B16D185
:10238000022808D0222801D0022405E093780A4AC6
:1023900003F0030313700024084B1B6823B102A948
:1023A00001F8010D02209847204602B010BD02241A
:1023B000FAE700BFD8350020D8110020D411002042
:1023C00021B901288CBF02200020704702207047ED
:1023D000054B1B689B78032B04D8044901EBC30110
:1023E00000F0BCBA00207047D8350020CC05002092
:1023F000014900F0B3BA00BF88050020014900F090
:10240000ADBA00BF9005002037B5114C2268127894
:1024100002F07F02212A02D0022003B030BDA0F1D9
:102420002003012B0B4B0C4D1B6888BF002523B1EB
:1024300002A901F8010D02209847002DECD0236875
:1024400000249D615C822046A8472046E5E700BF46
:10245000D8350020D4110020012300082DE9F047D1
:1024600000254FF0C00948F68F1648F280074FF05C
:10247000400A434B434C1B68DFF838819D7283F858
:102480000990256523682846334043F40073236090
:10249000236803EA08033B4383F010032360226DA3
:1024A000394B520043F802A08022236D5B0003F1F8
:1024B000804303F5C0431A60236823F4E24323F00A
:1024C00070031B041B0C2360304B1B6893F82C100B
:1024D00000F072F84FF440512846FFF7FFFEA36862
:1024E0002946334043F4C063A360226D284B520059
:1024F00013444FF480721A60A268022002EA0802B4
:102500003A4382F02002A260FFF7E8FEE3685146FA
:102510003340E360226D1F4B520013444FF4887226
:1025200003201A6000F048F84FF440510320FFF7F1
:10253000D5FE636829461E406660226D164B520028
:1025400043F802906368012003EA08033B4383F0E9
:1025500020036360FFF7C2FE0122104B28461B6870
:102560001A7300F0EBFBFF220D4B1D600D4B1D603D
:102570000D4B1D600D4B1D600D4B1A70BDE8F087B3
:10258000D8350020005C004008600040B0350020D5
:10259000206000403860004010600040740500205A
:1025A000DC110020E0110020E8110020EC110020D7
:1025B000E4110020BF8FFFFF0D4B0E4A1B6D3E291B
:1025C00003EBC0004FEA400002440AD94B09C80699
:1025D00004BF03F1FF339BB29B0243F4004313603B
:1025E00070474B08C90748BF01339B02F7E700BF9C
:1025F000005C00400C60004010B5064C18B9012288
:1026000023681A8210BD044B1B681B68984720681A
:102610000A30F7E7D8350020D435002010B5064C35
:1026200018B9012223681A8210BD044B1B689B68ED
:10263000984720680C30F7E7D8350020D4350020C3
:1026400010B51E4B1C68002310B90223238210BD55
:102650001B4803802178024611F07F0112D1617A74
:102660008C0644BF02230370037848064CBF23F056
:10267000010343F001031370124B1B681B69984759
:102680000F48E4E70129E2D0022915D1217901F0B0
:102690000F039B0003F1804303F5B84309061B6851
:1026A00005D503F03003102BE6D10123E3E703F453
:1026B0004053B3F5805FF7E71846C8E7D8350020E8
:1026C000AA350020D43500202DE9F843234FDFF848
:1026D000A0803D682C8AD4B92E7A042E17D12049C7
:1026E0000B78012B0ED11F4B1A681F4B92B213446B
:1026F0005B001C6030230C70A8F800303B681E7231
:10270000BDE8F88310230726A8F80030F6E7AB8A67
:102710009C4294BF042602269C4228BF1C46AB69FB
:10272000204698478146002000F0B4FB224601462F
:10273000484600F052FB2146002000F0C7FB2B8AE0
:102740004FF440521B1B2B826B8A1C443023A8F889
:102750000030064B6C821A80D0E700BFD8350020CD
:10276000F0110020505C004002300020A435002011
:10277000A635002010B50A4B0A491B6849789A789B
:1027800091420AD3D97841B99C8834B99A72064BE0
:102790001B685B689847204610BD0220FCE700BF1D
:1027A000D8350020C8050020D435002038B50F4AA0
:1027B0000F4D12682B6892699978187990472B68A9
:1027C00004469A7A7AB170B95A7962B9DB7853B90A
:1027D000084B1B68DB6898472B681A79DA729A787D
:1027E0001A73204638BD0224FBE700BFB035002035
:1027F000D8350020D435002038B52B4B1B6818780D
:1028000010F07F0004D15A7A22F020025A7238BDAB
:10281000022847D15A88002AF9D15A79002AF6D1DC
:102820001979224D21F08000840004F1804404F5E0
:10283000B844226849B22D780029B4BF02F03002B2
:1028400002F4405285422DD962B39B7A53B30029DA
:10285000236811DA03F03003102B07D1C4B22046ED
:1028600000F004FB3021204600F0D8FA104B1B6822
:102870005B6998470020CAE703F44053B3F5805FD3
:10288000F4D10C4D58B90C4B93F82C1000F02CFBE4
:1028900023682B409BB283F440532360E6E700F0AB
:1028A000D2FAF5E70220B2E7D8350020C8050020AB
:1028B000D43500208FBFFFFF9805002038B51B4B93
:1028C0001B4D18682D78017921F08004A30003F1D5
:1028D000804303F5B8431A6849B20029B4BF02F037
:1028E000300202F44052A5421DD94488DCB9D2B16D
:1028F000827AC2B11A680029B5BF22F4E04222F4FC
:10290000804222F0400222F07002B5BF92B292B231
:1029100082F0100282F480521A60064B1B689B6999
:102920009847002038BD0220FCE700BFD8350020C2
:10293000C8050020D435002008B5064B1A68537A24
:1029400043F020035372044B1B68DB699847002057
:1029500008BD00BFD8350020D435002010B5054B88
:102960001C68628A18B98B889B1A238210BD08687C
:102970001044FBE7D835002008B50B4B002093F836
:102980002C1000F0B1FA094B1B68187A082806D100
:102990004FF48052064B1A801022064B1A80A0F189
:1029A00009035842584108BD98050020D835002039
:1029B000A4350020A635002073B5964C964E2168AC
:1029C00032680B7A092B16D0944B92B213445B00F9
:1029D0001B885B0003F1804303F5C0431A780A703B
:1029E0005978226851709988226851801989226823
:1029F00091809B89D380012223681A72DA885D78DE
:102A0000002A64D11A7812F07F024DD1092D03D12A
:102A1000FFF7B0FE40BB16E0052D20D193F9022050
:102A2000002A07DA08232268137202B0BDE870405A
:102A3000FFF7A2BFDA78002AF4D19A88002AF1D1F0
:102A40009B7A002BEED13268754B92B21344002270
:102A50005B001A603022734B1A800623E3E7032DD4
:102A600014D19A78012A08D06F4B28461B685B69FD
:102A70009847032828D10923D5E79A88002AF3D15B
:102A80005B7A9A06F0D5FFF757FFC3E7012DEBD12C
:102A90009A78012AE8D19A88002AE5D15B7A9B06C8
:102AA000E2D5FFF7A9FEB5E7012A04D10B2DDBD152
:102AB000FFF77CFEAEE7022AD6D1012DF1D0032D1F
:102AC000D2D1FFF7FBFEA5E70028ABD1BBE7062D6F
:102AD00012D11A7855065AD1DB78534A012B126865
:102AE00002D1D369DBB952E0022B01D1136AF9E7B5
:102AF000032B4CD1536AF5E7002D54D15988002996
:102B000045D15A6822F0FF02B2F5003F3FD11A7852
:102B100012F07F0216D19B88002B38D1434B002541
:102B20002268284655829361984728464FF6FF71E0
:102B300023681A8A8A4233D0022801D0002A55D14C
:102B400008222EE0012A0AD1374A187912689269C0
:102B50009047E0B923689B7A002BDFD117E0022A67
:102B600015D11A7902F00F018B00100603F1804392
:102B70002F4803F5B8431B6800784CBF03F03003BF
:102B800003F44053884202D912F0700FE4D0264B70
:102B900022681B6850781B6998470328C6D12368B0
:102BA00009221A7241E7082D04D11B785B06EED189
:102BB000204BB4E70A2DEAD11A7802F07F02012AED
:102BC000E5D19A7A002AE2D059880029DFD15A68E3
:102BD00022F0FF02B2F5803FD9D1134A187912686A
:102BE000926990470028D2D1134B98E793F90010CF
:102BF000002936DAD9880C4C019101982468824268
:102C00001CD9019A1A8294F82C209A82FFF75CFD55
:102C10000BE700BFD8350020505C00400430002096
:102C200002300020A6350020B035002041260008E3
:102C3000C8050020F92500081D2600088A42E2D2B6
:102C400094F82C00824203D20021094A1170DAE77D
:102C500092FBF0F100FB1122002AD4D1044A012199
:102C6000F4E703221A724FF44052024B1A80DCE65A
:102C7000F0110020A4350020F8B52A4E3468237ADC
:102C8000032B01D0052B44D1A369B3B1258AA5B18B
:102C9000A28A954228BF154628469847238A0746A8
:102CA0005B1B2382638A00202B44638200F000F9BF
:102CB0002A460146384600F09FF8238A53B1002186
:102CC0004FF44052184B08461A8000F0FFF83022AB
:102CD000164B1A80228AA18A3368914209D80322AE
:102CE0001A7233681B7A32681372BDE8F840FFF736
:102CF00043BE0AB10522F3E7062119720C4B19688D
:102D00000C4B89B20B445B001A603022074B1A80CF
:102D1000E7E7072B03D1084B1B68DB6898470823BC
:102D2000E1E700BFD8350020A4350020A6350020FB
:102D3000505C004002300020B0350020002210B569
:102D40000C4B1C78A24204D30B4B40F0800018605F
:102D500010BD02F1805303F5B8539B00196821F4AC
:102D6000E04121F070010904090C1143196001329E
:102D7000E8E700BFC80500204C5C004010B5134CCC
:102D800023681A7A022A01D0042A09D1FFF79CFC91
:102D900023681B7A22681372BDE81040FFF7ECBD70
:102DA000062A10D15A78052A09D11A78520606D176
:102DB0009878FFF7C3FF064B1B681B6A9847054BC3
:102DC0001B689B6898470823E4E700BFD8350020BC
:102DD000D4350020B0350020704701F10051013298
:102DE00001F540515210490002B9704730F8023BDA
:102DF000013A21F8043BF7E7002310B501F1005137
:102E0000013201F54051521049009A4200D110BDE3
:102E100051F8234020F813400133F6E7800000F119
:102E2000804000F5B8400368CA0623F4E04323F06D
:102E300040039BB248BF83F010038A0648BF83F06B
:102E4000200303607047800000F1804000F5B84027
:102E500003685B0409D5036823F4E04323F070039F
:102E60001B041B0C43F4804303607047800000F197
:102E7000804000F5B84003685B0609D5036823F479
:102E8000E04323F070031B041B0C43F0400303607A
:102E900070470000054B1B689BB203EBC00000F1BC
:102EA000005000F54050400000887047505C0040E2
:102EB000044B1B689BB203EBC000034B03445B0055
:102EC00018887047505C004004300020044B1B6899
:102ED0009BB203EBC000034B03445B0019607047D7
:102EE000505C0040023000200D4B0E4A1B683E290A
:102EF0009BB203EBC00002444FEA42020AD94B09DD
:102F0000C80604BF03F1FF339BB29B0243F40043A6
:102F1000136070474B08C90748BF01339B02F7E7AE
:102F2000505C00400630002013B504468DF80710B1
:102F300001220DF107012046FEF797FE0028F7D089
:102F400002B010BD38B505464C1E14F9011F01B979
:102F500038BDC9B22846FFF7E7FFF6E708B5134BBF
:102F600003221C6801212046FDF7FCFF00230121FC
:102F70001A46B2F5007F0CD072B1B3F5007F01D1D3
:102F800000230A449A420CD90225206805610133C6
:102F9000EFE74FF0FF31F0E7B3F5007F4FF00101AD
:102FA000EED020684FF40035F0E700BF1CD40208D3
:102FB00008B5034B0BB100F083F862B6FFF7CEFF04
:102FC000C1300008F8B5144B06460D4617460BB342
:102FD00000F096F804461149FFF7B4FF3946204641
:102FE000FFF7B0FF0E492046FFF7ACFF3146204601
:102FF000FFF7A8FF0B492046FFF7A4FF294620460C
:10300000FEF779FE0A212046FFF78EFF0D212046AC
:10301000FFF78AFFFFF7CCFF0131000809D802084B
:103020001FD8020820D8020808B5044B23B100F0CD
:1030300067F80349FFF786FFFFF7BAFF0131000881
:1030400023D80208FDF732B908B500F0A5FF01F05A
:103050006DF8FCE721F0A6BF322870B50E4612D8F5
:10306000094B03EB00104568447B05B124B9074ABE
:103070002F210748FFF7A6FF2A6804F18043343266
:10308000013B42F8236070BDA8CF020848D802086F
:103090005AD8020838B50C460546072104EB04242B
:1030A00000F046F8A1B22846BDE83840FFF7D4BF8B
:1030B000002203685B0103F18443C3F800217047D9
:1030C0004FF0FF3310B50A4C0A48C4F88030C4F8FA
:1030D0008430FEF743FA0848FDF7FCFC0748FEF78A
:1030E000B1FE4FF4002323604FF48013236010BD22
:1030F00000E100E0BD150008B1300008351C0008F3
:1031000010B5094B094C18680B220221FDF72AFF64
:103110002068FEF75FFD20684FF416520021FEF78D
:1031200069FE206810BD00BF18D402088802002084
:10313000322838B542D8082927D8DFE801F02D30E9
:1031400005171A1D05202300002404221C4B000132
:103150001D18297B1858FDF705FF686870B3697B57
:1031600004B3BDE838400122FEF7F6BA0024224637
:10317000ECE700240922E9E700240822E6E701241D
:103180000B22E3E701240F22E0E70E4A4C21BDE8C1
:1031900038400D48FFF716BF00240322D6E700246D
:1031A0000722D3E702684B1E02F1404220329B0007
:1031B00003EBC2039B0003F184431C6038BD00BFD6
:1031C000A8CF0208A7E10208BAD8020808B5012171
:1031D0001048FDF715FA02210F48FDF711FA0321F7
:1031E0000E48FDF70DFA04210D48FDF709FA0521F7
:1031F0000C48FDF705FA06210B48FDF701FA0721F7
:103200000A48FDF7FDF9BDE8084008210848FDF728
:10321000F7B900BFF4110020F8110020FC110020C4
:103220000012002004120020081200200C120020BE
:103230001012002032280DD8074B000119181B5816
:10324000097B1B689A6801238B40134214BF01203D
:103250000020704700207047A8CF0208322810B520
:103260000ED8084B00011C181B58B1FA81F11A68DE
:103270000123207B49098340090103FA01F111610F
:1032800010BD00BFA8CF02080A4A0B4B11689B680B
:1032900000BF00BF12688A42F6D14820C3F58C33C4
:1032A00003F5A073B3FBF0F34FF47A7000FB023028
:1032B000704700BFA035002010E000E038B504469C
:1032C000FFF7E2FF05465CB1FDF76BFBFFF7DCFFA4
:1032D000401BB0F57A7FF6D3013C05F57A75F5D140
:1032E00038BD28B10C234343013B18460138FDD8B3
:1032F000704700000449054BCA6822F4E0621204DA
:10330000120C1343CB60704700ED00E00003FA0598
:10331000704701207047000013B5104C204616F08E
:10332000D8F92046042116F06DF9204602220C49F6
:1033300016F06CF9002302220A4900932046A023CC
:1033400016F0CAF9204616F0BDF9204616F0ACF981
:10335000204602B0BDE8104016F0ADB91C120020A6
:10336000EB0500201612002024280AD0252807D1BA
:103370000123054A32F81330044AC3F3890313804A
:1033800070470023F5E700BF16120020141200203A
:10339000044B03EB00135B6813B1C0B2FFF77ABEB6
:1033A000704700BFA8CF0208024B0348196816F007
:1033B00027B900BF1C0000201C1200200123427905
:1033C0008B4010B5DB439AB1012A41F65F6218BF0A
:1033D0000122046813402361036803F140430C3366
:1033E00001EBC3010123890001F184410B6010BD91
:1033F00041F6FF62EDE7002203685B0103F18443BD
:103400001A607047012203685B0103F18443C3F82B
:103410008022704770B5224D224C2B78BFF35B8F12
:1034200013F0010F0AD1284617F0B8FB30B1012084
:1034300000F056FB2060284617F0CCFB23681B6881
:103440001E69B20714D5184D0322297B2868FDF7A1
:1034500089FD2B68297B1A684FF480338B401361F8
:10346000002223681B685B0103F18443C3F8042234
:10347000730713D50C4D0322297B2868FDF772FDD5
:103480002B68297B1A6801238B4013610022236873
:103490001B685B0103F18443C3F8082270BD00BFC1
:1034A0003012002034120020A8CF02084FF0FF3362
:1034B000044A43601378022B8EBFFF23591C1170FE
:1034C000037070472C12002038B542680546531C23
:1034D00028D003780BB9006938BD846844F62060B1
:1034E000114B03EB02135A685B7B126803F18043B4
:1034F0003432013B52F823104FF6AF7289B20023E9
:10350000A1FB000117F03EF9E968A0F50870091B5E
:103510004FF4E862002380FB010117F033F92044E7
:1035200000B2D9E70020D7E7A8CF0208F8B50120FC
:103530000D4600F0D5FA044600283ED01F4E2D015E
:103540007719397B70590322FDF70CFD735901255A
:103550001A683B7B204605FA03F31B041361FFF74F
:103560004AFF02222946FEF7F7F8226829469369A6
:10357000204623F0FF0393612268936923F47F437D
:103580009361152223689A624FF6AF732268D36263
:103590002268536322689363094AFEF743F8084A96
:1035A00002212046FEF73EF82046FFF72BFF284673
:1035B00023685B0103F184431D60F8BDA8CF0208B6
:1035C0001534000870B5054601200E4600F088FA53
:1035D00003685E63FFF716FF3EB10121FFF7EEFEC1
:1035E000BDE870400221FFF7E9BE03680F4C5B01A4
:1035F00003F18443C3F88461036803225B0103F190
:103600008443C3F888616B681B01E118097BE058AB
:10361000FDF7A8FC6B681B01E118E358097B1A68E9
:103620004FF480338B40136170BD00BFA8CF0208F8
:10363000037813B91146FFF7C5BF074B03EB01131E
:10364000596839B15B7B086803F180433430013B32
:1036500040F82320704700BFA8CF0208F8B50578CE
:103660000446022D0E4601D90020F8BD3229FBDCAC
:10367000C0E902234FF0FF33036125B9FFF756FF7E
:1036800008B16660F1E7114B03EB06135D68002D8E
:10369000EAD0F7B207213846FFF74AFD0022394643
:1036A0002046FFF7C5FF2846FFF7A5FE15222B6829
:1036B0009A624FF6AF722B68DA62FFF7A3FE012021
:1036C0002B685B0103F184431860DAE7A8CF020896
:1036D00008B541684A1C08D04FF0FF32C9B20261F8
:1036E0000022FFF7A5FF012008BD0020FCE738B548
:1036F000456804466B1C28D0D0E902328B4222DC9C
:103700009142A8BF11464FF4E8602161D21AC91A4C
:1037100081FB0001D31717F035F84FF6AF7100F5B4
:10372000087080B2002344F62062A0FB010117F06C
:1037300029F8E9B282B22046FFF77AFFBDE83840A7
:10374000322000F0A1BD1946DDE738BD054B1878E1
:10375000C0F3C00020B1044BD878003018BF01205E
:10376000704700BFD4330020B433002010B5074C9D
:10377000032294F84C10206CFDF7F4FB236C94F8B2
:103780004C101A6801238B40136110BDA8CF0208AA
:1037900000230138C0B20528F0B588BF1E464FF09F
:1037A000010798BF134A8BB098BF165C124C019664
:1037B0008DF810708DF81130029301ADCDE908330A
:1037C0000FCD0FC40FCD0FC42B6823600B4C2046C8
:1037D000E46614F0B6FC3146204614F0C4FC3946C9
:1037E000204614F0CDFC002120460BB0BDE8F0408F
:1037F00014F0ECBC30D9020838120020AC340020A0
:1038000030B593B0FFF7A2FF30B9FF21134813B0D2
:10381000BDE8304014F016BD114D09AC0FCD0FC4FA
:103820000FCD0FC42B680BAD23606C460FCD0FC4BA
:1038300095E8070084E8070009AB0CCB0421074892
:1038400014F0D1FCFF21054814F0FCFC04460348A9
:1038500014F0E9FC204613B030BD00BFAC340020AA
:1038600038120020F0B593B00F460646FFF76EFF02
:10387000014608B3144D09AC0FCD0FC40FCD0FC4D2
:103880002B680BAD23606C460FCD0FC495E8070085
:1038900084E8070009AB0CCB04210C4814F0A3FC0E
:1038A0003B4632460021094814F08AFD074813B010
:1038B000BDE8F04014F0B7BC3B463246034813B0B5
:1038C000BDE8F04014F07CBD38120020AC3400207C
:1038D00070B592B00646FFF739FFF8B1134D09AC49
:1038E0000FCD0FC40FCD0FC42B680BAD23606C46FA
:1038F0000FCD0FC495E8070084E8070009AB0CCB97
:1039000004210B4814F06FFC3146094814F0E4FD23
:10391000074812B0BDE8704014F085BC3146044839
:1039200012B0BDE8704014F0D7BD00BF38120020BF
:10393000AC340020F0B593B007460E46FFF706FF03
:1039400030B31A4D09AC0FCD0FC40FCD0FC42B6887
:103950000BAD23606C460FCD0FC495E8070084E8DB
:10396000070009AB0CCB0421114814F03CFC39468C
:103970000F4814F0B1FD01234FF4007231460C489A
:1039800014F09EFD0A4813B0BDE8F04014F04BBCA3
:103990003946074814F0A0FD01234FF40072314668
:1039A000034813B0BDE8F04014F08ABD381200207F
:1039B000AC340020054B0649002219600121C3E9FF
:1039C000072219735A735A60704700BF38120020DB
:1039D00000093D000228F8B506460D4639D00528F5
:1039E00036D100262C4C0222236801215B0103F111
:1039F00084431E602046FDF7AFFE28494FF6FF7056
:103A0000B1FBF5F11122814228BF014623685E62B5
:103A10009A62D8629A69204622F0FF029A6159633D
:103A20005B0103F184430121DE611D4AFDF7FAFDCC
:103A300001213220FDF7EAFB012223685B0103F13B
:103A40008443C3F8802223685B0103F184431A6036
:103A5000F8BD0027134C0246236801215B0103F1E6
:103A600084431F602046FDF777FE40F2E73223686B
:103A70000D495F62B1FBF5F19A624FF6FF72914218
:103A800028BF1146DA6220465963084A0121FDF732
:103A9000C9FD31461C20CDE71802002000093D0079
:103AA00005460108AC0100204019010075570108C6
:103AB00002280CD005280CD1074B1B685B0103F1D1
:103AC0008443D3F88401003018BF01207047034BB2
:103AD000F3E70020704700BF18020020AC0100206F
:103AE000013807289ABF024B53F820000020704786
:103AF00038D9020810B5C37804460BB112F006FF9E
:103B0000204610BD30B51D4B91B01C78C4F3C004E5
:103B1000DCB100231A4D08AC8DF800308DF803306D
:103B20000FCD0FC495E80F0084E80F000123154A5C
:103B300008A9684613F014F8044648B9002408A8F8
:103B4000FFF7D8FF6846FFF7D5FF204611B030BD1C
:103B50004FF480520C49684612F07AFD0028EDDBE4
:103B600003B2B3F5805F04DAFF22074BC254013081
:103B7000F6E7684612F0CAFEE1E700BFD433002042
:103B8000D833002058D902085C12002030B5194BF8
:103B900091B01C78C4F3C0043CB30023164D08ACAC
:103BA0008DF800308DF803300FCD0FC495E80F006D
:103BB00084E80F005223114A08A9684612F0D0FF8A
:103BC000B0B14FF480520E49684613F021F9044613
:103BD000684612F09BFEA4F580535C4208A85C4145
:103BE000FFF788FF6846FFF785FF204611B030BD1C
:103BF0000446F0E7D4330020D833002058D9020817
:103C00005C120020F8B505460024944206D0084E08
:103C10000F5D2868264437540134F6E7A2B21846EF
:103C20000BF090FF2B6800201C442C60F8BD00BFF7
:103C30005C1200202DE9F74305460F4690461E46CC
:103C400000249DF828904445296810D00B4A22444E
:103C5000535C8DF80730B9F1000F00D03B550122BD
:103C60000DF1070130460BF06DFF0134EBE700204A
:103C70000C442C6003B0BDE8F08300BF5C12002050
:103C8000FDF7BCBA70470368C9B21B68184700004B
:103C90000023054A9A56824204D00133162BF8D1EC
:103CA000002070470120704738DB020808B500F09B
:103CB00085FABDE80840014800F06EBA9DD90208B7
:103CC00008B50EF027FF0EF093FFFE200EF074F8FB
:103CD000BDE808400EF04EB8124AD2F8803092F893
:103CE0008C101868012303FA01F109040161D2F86C
:103CF0001011086892F81C1103FA01F1090401611E
:103D0000D2F82012086892F82C1203FA01F1090483
:103D10000161D2F8D01292F8DC22096893401B04AA
:103D20000B617047A8CF0208044BD3F8D02293F858
:103D3000DC12012312688B4013617047A8CF020880
:103D4000012130B4124BD3F88020106893F88C20F6
:103D500001FA02F202610F48027822F001040470B5
:103D6000D3F81041256893F81C4101FA04F42C6142
:103D700022F003040470D3F8204293F82C32246814
:103D8000994022F007022161027030BCFFF7CCBFDE
:103D9000A8CF02084327002008B540F2E933013BD1
:103DA00008D000BF00BF00BF42F62F22013A00BF7B
:103DB000FCD1F4E772B640F2E933013B08D000BF12
:103DC00000BF00BF41F29312013A00BFFCD1F4E7FB
:103DD00011F05AF9FFF754FFFCE70000044608B55C
:103DE00011F052F900F0EAF9054800F0D5F905485C
:103DF000002C18BF20460BF077FDFFF7CDFF00BF6A
:103E0000B5D90208ACD9020870B5374B05461B7806
:103E1000032B01D804F058FA344B354A1B68146858
:103E20009BB1344909680B44E31A002B0DDB00F009
:103E3000C5F9314B3148196800F0C6F90A213048FC
:103E4000FFF721FF0020FFF7C9FF2E4B1B6843B18E
:103E50002D4908782D49097888420ED01268254BE3
:103E60001A602B4D00F0C4FF2B68E31A002B03DB14
:103E700064340EF0E7FD2C6070BD264A85BB1D49F9
:103E800009680B44E31A002B2ADB1378002BE8D1D6
:103E900001231370204AD2F88010086892F88C1021
:103EA00003FA01F101611D48017821F00105057057
:103EB000D2F810512E6892F81C5103FA05F53561BD
:103EC00021F003050570D2F8205292F82C222D68BB
:103ED000934021F007012B610170FFF725FFC0E738
:103EE00000231370BDE700BF482400206422002097
:103EF000A03500207C2200208C22002063D90208FB
:103F000034100020F00500200D2D00200E2D002083
:103F10005C22002060220020A8CF02084327002056
:103F200008B50BF023FB02F01BFD0020FFF76CFF30
:103F300011F0CCF90BF090FD034B1B781BB9BDE8D9
:103F4000084011F0E1BE08BD6822002010B50D4CFC
:103F500011F09AF80CF042FA237893B10A4B1A68E0
:103F60000A4B1A6000F02AF9094800F015F90021FF
:103F700008480BF0CDFA4FF4AF7000F085F900233C
:103F8000237010BDED050020442400204C240020A7
:103F9000D9D9020850DA020837B5FFF7ABF94F4A12
:103FA000136823F0E06343F00073136010F0B2FB7A
:103FB0004FF4E1314A48FCF711FB4A4B4A481B6871
:103FC00000F0EAF800F0F4F8FFF7A3F9C50704469B
:103FD00002D5464800F0E0F8A00702D5444800F0BA
:103FE000DBF8610702D5434800F0D6F8220702D576
:103FF000414800F0D1F8A30602D5404800F0CCF8C3
:10400000FFF786F93E4800F0C7F820213448FFF753
:104010003AFE3C4800F0C0F80A213148FFF733FE71
:1040200000F0C6F8384800F0B7F8384800F0B4F8A7
:10403000374800F0B1F800F0BBF8364800F0ACF8B3
:1040400000F0B6F80020FCF7E5F90DF10701091AB8
:104050003148324C00F0C4F8314D4FF4A86131487A
:1040600000F0BEF80A211E48FFF70DFE0BF0D2F952
:104070000BF046FC05F0A4FA0DF088FC29682068D6
:1040800016F056F869682060606816F051F8A96863
:104090006060A06816F04CF8A0600DF06BFE22483E
:1040A00010F0F8FE0CF0C2F90DF0ACFC0FF0BAFF06
:1040B0000FF0CEFD0FF064FC00200DF0C5FC00F009
:1040C000CFF9012000F0AEF9FFF7DCFD01231A461D
:1040D0001946184600F088FB03B030BD04000140CB
:1040E00034100020A0350020F1FC02085ADA020842
:1040F00063DA020874DA020886DA020897DA02083C
:10410000A8DA0208AFDA0208BDDA0208CDDA02083E
:10411000D8DA0208FBDA020812DB02085027002076
:104120007027002021DB0208C82F002008B513F0FB
:104130001FFE124B1B789B0613D513F02DFA03F0CC
:104140007BFDFFF7BDFD0CF049F910F09DFF00214C
:10415000084610F023FD0022094B0A481A7003F0AC
:1041600009FE094B1B78032B01D804F0ADF803F0CE
:1041700021FF0DF069FDFFF7D3FED8E7D43300200F
:10418000F4050020D5D9020848240020014813F086
:1041900057B800BF6122002010B5044614F9011B76
:1041A00019B10248FFF76FFDF8E710BD3410002089
:1041B0000148FFF7F1BF00BF60DB02080148FFF7CD
:1041C000EBBF00BF59DB020810B50C46FFF7E4FF58
:1041D0002146BDE810400148FCF78CBA341000209D
:1041E00010B50C46FFF7D8FF2146BDE810400A2263
:1041F0000148FCF7E5BA00BF3410002010B50C46AA
:10420000FFF7CAFF2146BDE810400A220148FCF72B
:10421000EABA00BF3410002013B50C46FFF7BCFF0C
:10422000204615F0F5FB02230246009302480B4698
:10423000FCF7B2FB02B010BD3410002010B50C46E4
:10424000FFF7AAFF2146BDE810400A220148FCF70B
:10425000E1BA00BF34100020034A044B002814BF09
:1042600010461846FFF798BFAAE00208BDDF020813
:10427000034A044B002814BF10461846FFF78CBFB2
:104280004EDB020853DB020810B50446322C06D977
:104290003220323CFFF712F811F018F8F6E720460A
:1042A000FFF70CF8BDE8104011F010B8064BD3F83A
:1042B000F02093F8FC10012312688B40926813429F
:1042C00014BF012000207047A8CF020810B50C468B
:1042D00001460748FFF70BFA2068B0F5FA7F38BFB0
:1042E0004FF4FA70FFF7D0FFBDE81040FFF7DEBFD4
:1042F000AC2D00204FF4FA7337B540F2EE2502AC36
:1043000044F8043D2146A020FFF7E0FF21465A2053
:104310000195FFF7DBFF21460A200195FFF7D6FF45
:1043200021465A200195FFF7D1FF03B030BD0000B0
:1043300037B540F2EE2502AC44F8045D21460A2070
:10434000FFF7C4FF18B90024204603B030BDFFF7C3
:10435000D1FF21460A200195FFF7B8FF0446002847
:10436000F1D0FFF72BFF0348FFF716FFFFF7EEFD35
:10437000EAE700BF66DB020837B540F2EE2502AC83
:1043800044F8045D21465A20FFF7A0FF18B9002425
:10439000204603B030BD4FF4FA732146A0200193AC
:1043A000FFF794FF21465A200195FFF78FFF04463F
:1043B0000028ECD0FFF702FF0248FFF7EDFEFFF701
:1043C000C5FDE5E766DB020840F2EE2373B502ACFB
:1043D00044F8043D214606460A20FFF777FF962061
:1043E0002146019006B18C209625FFF76FFF2146EC
:1043F00082200195FFF76AFF019521466EB18C205E
:10440000FFF764FF40F2EE2321465A200193FFF7A5
:104410005DFF034B1E7002B070BD2846F0E700BF81
:104420006B2200204FF4FA7337B502AC44F8043D18
:1044300021460546A020FFF749FF40F2EE23214622
:104440005A200193FFF742FF044B1B781BB115B1B3
:104450000020FFF7B9FF03B030BD00BF6B22002082
:1044600010B5254CD4F804319BB107211020FEF77C
:104470005FFED4F87431EBB107211720FEF758FE28
:10448000D4F864313BB3BDE8104007211620FEF795
:104490004FBE032294F80C11D4F80001FCF762FD22
:1044A000D4F8003194F80C111A684FF480338B4023
:1044B0001361DEE7032294F87C11D4F87001FCF755
:1044C00051FDD4F8703194F87C111A684FF48033A0
:1044D0008B401361D4E7032294F86C11D4F8600187
:1044E000FCF740FDD4F8603194F86C111A684FF471
:1044F00080338B40136110BDA8CF020838B52B4C18
:104500000546D4F80431017833B31020FEF740FF9C
:10451000D4F874316978002B2CD01720FEF738FFBF
:10452000D4F86431A978002B32D01620FEF730FF82
:104530002B786A781344AA781344022BCCBF01224B
:1045400000221B4B1A7006DD1A4B9D421FBF2A88A2
:104550001A80AA789A7038BD012300290CBF102157
:10456000002194F80C219340D4F800218B4012686C
:104570001361CDE7012300290CBF1021002194F81D
:104580007C219340D4F870218B4012681361C7E7F7
:10459000012300290CBF1021002194F86C219340C5
:1045A000D4F860218B4012681361C1E7A8CF0208DC
:1045B0006F2200206C220020FF22024B1A705A70DA
:1045C0009A7070476C2200202DE9F341D0F80080EA
:1045D0000E684046176816F08FF80546384616F004
:1045E0008BF831460446404616F066F800BB394663
:1045F000304616F061F8E8B9304616F07DF8FF262F
:10460000621B401BD31780FB060116F0BBF80A4B58
:10461000C0B21A78824208D01870C0438DF80600E4
:1046200001A8ADF80460FFF769FF02B0BDE8F081B2
:104630002846E4E72046E2E7702200202DE9F34116
:10464000D0F800800E684046176816F055F8054609
:10465000384616F051F831460446404616F02CF81C
:1046600010BB3946304616F027F8F8B9304616F038
:1046700043F8FF26621B401BD31780FB060116F090
:1046800081F80B4BC0B21A7882420AD0187000230E
:104690008DF8040001A88DF805308DF80660FFF74D
:1046A0002DFF02B0BDE8F0812846E2E72046E0E7B2
:1046B0007022002010B50B6804461B690846984715
:1046C0002379C0F3400210F01E0F60F3000362F381
:1046D000410314BF0122002262F382032060237190
:1046E000204610BD08B558210148FFF7CCFA08BD97
:1046F0003410002008B559210148FFF7C4FA08BD5D
:104700003410002008B55A210148FFF7BCFA08BD53
:104710003410002008B545210148FFF7B4FA08BD60
:1047200034100020F7B53C2400680D46B0FBF4F7C8
:104730004FF46161B7FBF4F3B0FBF1F104FB1373C9
:104740008EB2A2B11821B6FBF1F2104C01FB126639
:10475000B0FBF4F400932246B3B20D49284621F091
:1047600083FA0A2C34BF0820092003B0F0BD632E61
:104770008AB205D80749284621F076FA0520F4E7E1
:104780000549284621F070FA0620EEE78051010025
:1047900072DC020876DC020880DC020810B50446F0
:1047A0000C48FFF7F9FC102221680B48FCF73CF895
:1047B00023799A0702D50948FFF7EEFC23795B07B6
:1047C00002D50748FFF7E8FCBDE810400548FFF7B1
:1047D00005BB00BFDFDB020834100020FADB020853
:1047E0000BDC02081FDC0208F8B50D4617461E4612
:1047F000002800F095805248FFF7CEFCFFF772FFCB
:104800005048FFF7C9FC504814F0A5FE04460028A4
:1048100000F084804D48FFF7BFFC012C7CD04C4851
:104820004C4B022C18BF1846FFF7B6FC0A214A4829
:10483000FFF729FA003418BF01240DB34048FFF7F1
:10484000ABFCFFF757FF3F48FFF7A6FC434814F0C7
:1048500082FE0546002867D03C48FFF79DFC012DED
:1048600060D03B483B4B022D18BF1846FFF794FC25
:10487000002D18BF01340A213748FFF704FAE4B2CB
:104880000FB32F48FFF788FCFFF73CFF2D48FFF7D9
:1048900083FC334814F05FFE0546002848D02B48BF
:1048A000FFF77AFC012D41D029482A4B022D18BF71
:1048B0001846FFF771FC002D18BF01340A21264865
:1048C000FFF7E1F9E4B206B31D48FFF765FCFFF717
:1048D00021FF1C48FFF760FC224814F03CFE05460F
:1048E00050B31A48FFF758FC012D23D01848194B34
:1048F000022D18BF1846FFF74FFC002D18BF0134DA
:104900000A211548FFF7BFF9E4B2BCB1BDE8F84091
:10491000002115480AF0FCBD144885E70D4883E7DF
:1049200004468AE71148A1E70A489FE70F48C0E715
:104930000848BEE70D48DEE70648DCE7F8BD00BFE3
:1049400038DC020841DC0208782E002051DC020825
:1049500034DC02082CDC020834100020BC2E0020BD
:10496000002F0020342E00205DDC02082FDC02081E
:1049700030B589B004460D46014602A8FFF79AFEFD
:10498000029B013B03336BD8002D69D09DF80C20AE
:1049900094F83F30900765D5013384F83F3094F8A0
:1049A0003F30092B08D90A213348FFF76CF9FFF78C
:1049B00099FE02A8FFF7F2FE9DF80C30D90722D528
:1049C00094F83E30FBB90BF043FD2C4A0190904225
:1049D00094BF0022012204A901A8FFF7A3FE0A2127
:1049E0002548FFF750F904A92348FBF783FE244824
:1049F000FFF7D2FBFFF776FE2248A18FFFF7F0FB0F
:104A00002148FFF7C9FB9DF80C3013F0010F94F813
:104A10003E302BD0042B1DD92046A58F14F047FC27
:104A200090B1642D10D9A5F1320189B2A187204639
:104A300014F01AFDFFF756FEA18F1448FFF7D0FBC4
:104A40000A210D48FFF71FF99DF80C2094F83E301D
:104A5000D2070BD5013384F83E30012384F840306F
:104A600009B030BD002B9AD0013B96E7002BF7D060
:104A7000002384F83E30F3E7341000208051010019
:104A800020D80208A0DB0208C3DB0208C8DB02084A
:104A900030B589B004460D46014602A8FFF70AFE6C
:104AA000029B013B03336BD8002D69D09DF80C208D
:104AB00094F83F30900765D5013384F83F3094F87F
:104AC0003F30092B08D90A213348FFF7DCF8FFF7FC
:104AD00011FE02A8FFF762FE9DF80C30D90722D51F
:104AE00094F83E30FBB90BF0B3FC2C4A0190904295
:104AF00094BF0022012204A901A8FFF713FE0A2196
:104B00002548FFF7C0F804A92348FBF7F3FD244824
:104B1000FFF742FBFFF7EEFD2248A18FFFF760FB96
:104B20002148FFF739FB9DF80C3013F0010F94F882
:104B30003E302BD0042B1DD92046A58F14F0B7FB97
:104B400090B1642D10D9A5F1320189B2A187204618
:104B500014F08AFCFFF7CEFDA18F1448FFF740FB4D
:104B60000A210D48FFF78FF89DF80C2094F83E308D
:104B7000D2070BD5013384F83E30012384F840304E
:104B800009B030BD002B9AD0013B96E7002BF7D03F
:104B9000002384F83E30F3E73410002080510100F8
:104BA00020D80208A0DB0208C3DB0208C8DB020829
:104BB00030B589B004460D46014602A8FFF77AFDDC
:104BC000029B013B03336BD8002D69D09DF80C206C
:104BD00094F83F30900765D5013384F83F3094F85E
:104BE0003F30092B08D90A213348FFF74CF8FFF76B
:104BF00089FD02A8FFF7D2FD9DF80C30D90722D518
:104C000094F83E30FBB90BF023FC2C4A0190904203
:104C100094BF0022012204A901A8FFF783FD0A2105
:104C20002548FFF730F804A92348FBF763FD244823
:104C3000FFF7B2FAFFF766FD2248A18FFFF7D0FA1F
:104C40002148FFF7A9FA9DF80C3013F0010F94F8F2
:104C50003E302BD0042B1DD92046A58F14F027FB06
:104C600090B1642D10D9A5F1320189B2A1872046F7
:104C700014F0FAFBFFF746FDA18F1448FFF7B0FAD6
:104C80000A210D48FEF7FFFF9DF80C2094F83E30F6
:104C9000D2070BD5013384F83E30012384F840302D
:104CA00009B030BD002B9AD0013B96E7002BF7D01E
:104CB000002384F83E30F3E73410002080510100D7
:104CC00020D80208A0DB0208C3DB0208C8DB020808
:104CD00030B589B004460D46014602A8FFF7EAFC4C
:104CE000029B013B03336BD8002D69D09DF80C204B
:104CF00094F83F30900765D5013384F83F3094F83D
:104D00003F30092B08D90A213348FEF7BCFFFFF7D3
:104D100001FD02A8FFF742FD9DF80C30D90722D50E
:104D200094F83E30FBB90BF093FB2C4A0190904273
:104D300094BF0022012204A901A8FFF7F3FC0A2175
:104D40002548FEF7A0FF04A92348FBF7D3FC24481D
:104D5000FFF722FAFFF7DEFC2248A18FFFF740FAA7
:104D60002148FFF719FA9DF80C3013F0010F94F861
:104D70003E302BD0042B1DD92046A58F14F097FA76
:104D800090B1642D10D9A5F1320189B2A1872046D6
:104D900014F06AFBFFF7BEFCA18F1448FFF720FA5E
:104DA0000A210D48FEF76FFF9DF80C2094F83E3065
:104DB000D2070BD5013384F83E30012384F840300C
:104DC00009B030BD002B9AD0013B96E7002BF7D0FD
:104DD000002384F83E30F3E73410002080510100B6
:104DE00020D80208A0DB0208C3DB0208C8DB0208E7
:104DF00008B50F490F4B0A681B689A1A002A16DB80
:104E000003F5FA730B60002201210B48FFF7B0FD98
:104E1000002201210948FFF73BFE0022012108483A
:104E2000FFF7C6FE002201210648FFF751FF08BD2B
:104E300074220020A0350020782E0020BC2E0020F7
:104E4000002F0020342E00204138C3B2192B2DD85A
:104E5000174A1068D84010F0010028D0154AD25CDB
:104E600012B3154B19688B188A56A2F13001C9B2DA
:104E7000092906D92E2A08D15A78303A092A88BF3A
:104E800000230E4A0120136070472D2A01D02B2ADF
:104E90000AD193F90110A1F13002D2B2092AF0D956
:104EA0002E2901D19A78E8E70023EAE7002070472D
:104EB000B0220020922200208C220020B422002068
:104EC00008B5FFF7C1FF20B1024B1868003018BFCA
:104ED000012008BDB4220020034B186818B10A2233
:104EE000002122F077BC7047B422002007B5144B94
:104EF0001B7803F00303032B0BD0124800210AF0A8
:104F000007FBFFF755F91048FFF746F903B05DF8C6
:104F100004FB0CF02FFF0D480D4B01469B6802AAC5
:104F200083600C4B03600C4B41F8043F002342F8B4
:104F3000043D0CF0C1FF02200DF060F9E6E700BF70
:104F40004327002088DC020896DC02086027002046
:104F500050270020000021430000F6422DE9F74FC2
:104F60004F4B05461B7803F00703072B72D00DF05B
:104F70003FFE0CF0ABFF01200CF060FD5820FFF766
:104F800063FF04465920FFF75FFF80465A20FFF772
:104F90005BFF81461DB9444504D1844202D10124FE
:104FA000A046A1463F4E404FB24697E80F0086E824
:104FB0000F005220FFF784FF00286ED03B4B18688B
:104FC00050B30246934612F9016B36F0200160D0CF
:104FD000452E01D0652EF5D100218BF80010186800
:104FE00022F018FB05468BF800600021284615F0DA
:104FF0003BFB88B914B9B8F1000F17D0CAF80850B4
:105000002946B86815F03AFB30B1002302A941F8EF
:10501000043D27480CF044FF14B100200DF0EEF8D9
:10502000B8F1000F02D001200DF0E8F8B9F1000F3F
:1050300004D00020FFF7F6F9FFF758FF0CF09AFEB6
:105040000CF0B0FC0CF056FF03221A4B1A700CF057
:1050500061FE14E04F20FFF733FF98B1134B1B683C
:105060006BB1FFF739FF002881DBFFF735FFFF2821
:1050700005DCFFF731FF10F0FF0F3FF478AF03B00E
:10508000BDE8F08F4F20FFF7DFFE00283FF46FAF41
:10509000F5E722F0BFFA0546A7E7074DAAE700BFEC
:1050A000422700206027002050270020B422002043
:1050B00068270020100600200000204138B50D4B65
:1050C0001868A8B10246154612F9014B34F02001C8
:1050D0000AD0452C01D0652CF5D100212970186823
:1050E00022F098FA2C7038BDBDE8384022F092BA10
:1050F0000020F8E7B422002070B501F0FFF8051E8B
:1051000026DB4420FFF7A0FED8B1FFF7D7FF002130
:1051100006464FF0010415F0A7FA08B14FF000045D
:105120000C4B00211C70304615F09EFA48B9FFF771
:10513000C5FF0021044615F097FA074B28B943F83C
:105140002540BDE870400DF0A7BC044A1A60F8E79E
:1051500070BD00BF91220020F82C00200000E03F2D
:1051600010B501F0CBF8002813DB0024094B1857C9
:10517000FFF76AFE30B1FFF7A1FF15F0E3FA064B27
:1051800043F824000134042CF0D1BDE810400EF0A7
:1051900027BB10BDA5DC0208542D002010B501F07E
:1051A000ADF800280EDB0024074B1857FFF74CFE24
:1051B00028B1FFF783FF054B03EB840358620134EA
:1051C000042CF1D110BD00BFA5DC0208542D002035
:1051D00008B5214B214A1B681A423CD04220FFF7F8
:1051E00033FE40B11E4B186818B10A22002122F08C
:1051F000ADFB1C4B18615320FFF726FE18B1FFF7DB
:105200005DFF184B18645420FFF71EFE18B1FFF71E
:1052100055FF144B58645820FFF716FE18B1FFF7DE
:105220004DFF114B18605920FFF70EFE18B1FFF724
:1052300045FF0D4B58605A20FFF706FE18B1FFF7E7
:105240003DFF094B98604520FFF7FEFD18B1FFF7C1
:1052500035FF054BD86008BDB022002012008C033A
:10526000B4220020542D0020342D002010B51D4BF9
:105270001B6813F4682F12D11B4C1C48616BFEF79E
:10528000CBFFA16B1A48FEF7C7FFE16B1948FEF789
:10529000C3FFBDE810400A211748FBF74BB9532064
:1052A000FFF70EFE20B1FFF709FF0F4B5863D863DD
:1052B0005020FFF705FE18B1FFF700FF0A4B5863B7
:1052C0005220FFF7FDFD18B1FFF7F8FE064B98637B
:1052D0005420FFF7F5FD18B1FFF7F0FE024BD8633D
:1052E00010BD00BFB0220020542D0020A9DC020810
:1052F000B9DC0208BCDC02083410002008B5194BE8
:105300001B685B0304D5184B9A7C184B0AB91A60CA
:1053100008BD1749096888188A56A2F13001C9B238
:10532000092905D92E2A0BD14278303A092A0BD8FF
:105330000A220021186022F04DFA0E4B1880E7E790
:105340002D2A03D02B2A01D00022E0E790F901108A
:10535000A1F13002D2B2092AEAD92E29F4D18278F9
:10536000E3E700BFB022002092220020B4220020F8
:105370008C2200201806002038B500F0BFFF041E64
:1053800047DB2D4B2D4D1B6813F4802F04D02C4B85
:105390009A7C2C4BCAB91A60FEF70AFF45212A48AD
:1053A000FEF771FC04F130012748FEF76CFC35F97B
:1053B00014102648FEF714FF25212348FEF763FC4E
:1053C0000A212148FEF75FFC23E02149096888187B
:1053D0008A56A2F13001C9B2092905D92E2A19D15C
:1053E0004278303A092A19D80A220021186022F09E
:1053F000F1F900B225F8140014F04EFF154914F02D
:105400009FFF154B53F8241014F09AFF134B43F8E9
:10541000240038BD2D2A03D02B2A01D00022BAE760
:1054200090F90110A1F13002D2B2092ADCD92E295B
:10543000F4D18278D5E700BFB022002044060020D6
:1054400092220020B422002034100020BFDC020889
:105450008C2200200AD7233C142D0020480600206F
:1054600010B54520FFF7F0FC002837D15020FFF79A
:10547000EBFC264C10B1FFF721FEE0604920FFF75E
:10548000E3FC28B1FFF71AFE214914F059FF20610F
:105490004420FFF7D9FC28B1FFF710FE1C4915F096
:1054A00003F86061FEF784FEE1681A48FEF7B4FE77
:1054B0002069174914F0F8FF01461748FEF7ACFEC3
:1054C0006069134914F03CFF01461448FEF7A4FE3E
:1054D000BDE810400A211248FBF72CB8114B1B689D
:1054E000002BC3D0FFF7F8FC0028BFDBFFF7F4FC6C
:1054F000FF2804DCFFF7F0FC10F0FF0FB6D0FEF73A
:105500005DFEBDE810400848FEF746BE442F00206F
:105510000AD7233EC7DC0208CBDC0208CFDC020836
:1055200034100020B4220020D3DC020870B55320D0
:10553000FFF78AFC0546F0B12F4B186800283AD0D7
:105540000246164612F9014B34F0200130D0452CAA
:1055500001D0652CF5D100213170186822F05AF87D
:10556000347015F0C9F8254B00B21880B0FA80F0FD
:10557000234B400918705020FFF766FC0446F0B139
:105580001E4BB3F9003083B11B4B1B686BB1FFF7A7
:10559000A3FC002811DBFFF79FFCFF2805DCFFF7C9
:1055A0009BFCC0B2041C18BF0124154B1C7070BDBD
:1055B00022F030F8D5E70020D3E70024F5E7002DEE
:1055C000F5D1FEF7F5FD0F48FEF7E6FD0C4B0E4A50
:1055D00018780E4B002814BF10461846FEF7DCFD65
:1055E000064B0B48B3F90010FEF7FAFDBDE870401A
:1055F0000848FEF7D1BD00BFB42200205A060020A3
:10560000742F0020E9DC02081FF30208E5DC020821
:10561000FCDC02080DDD020810B5C0B1FEF7C8FDC4
:105620000D4C0E486169FEF7F7FDA1690C48FEF7C5
:10563000F3FDE1690B48FEF7EFFD216A0A48FEF72A
:10564000EBFDBDE810400A210848FAF773BF20219E
:105650000648FAF76FFFE3E7542D002011DD02083A
:10566000D5F30208D1F80208F7F802083410002038
:105670002DE9F04100F042FE011E4ADB264B274A8D
:105680001B681A4204D1BDE8F0410120FFF7C4BFF6
:105690000025234B5857FFF7D7FB68B3214B1B68F6
:1056A00053B3032D204C2ED1FFF708FD1F490746A9
:1056B00014F0E4FFF8B13946206A14F0F5FEDFF883
:1056C000708006460146D8F80C0014F039FE3146C9
:1056D000C8F80C00206B14F033FEDFF8588020630C
:1056E000D8F80C0014F0D4FD314614F029FE15F062
:1056F00029F8C8F80C0027620135042DC9D1BDE88E
:10570000F0410EF091B8FFF7D9FC04EB850460611D
:10571000F2E7BDE8F08100BFB02200201000800356
:1057200018DD0208B4220020542D00200000A04102
:10573000342D0020242D00200023024A1370024A39
:105740001370704769220020F40500200020FEF746
:1057500045BBFEF7B5BA000070B55320FFF774FBE8
:10576000204D28B15320FFF76FFB20BB002028708D
:10577000FEF71EFD1C48FEF70FFD2B786BB30024CF
:1057800023462A78E240D2070CD55E1CF6B21BB144
:105790002C211648FAF7CEFE154B53F82400FEF7DD
:1057A000FBFC33460134052CEBD1BDE870400A21E7
:1057B0000E48FAF7BFBE0F4B1B68002BD6D0FFF781
:1057C0008BFB0028D2DBFFF787FBFF2803DCFFF70A
:1057D00083FBC0B2CBE7FF20C9E70748FEF7DCFC3C
:1057E000E3E700BF6A2200201CDD0208341000201D
:1057F00050DD0208B422002023DD020801200CF055
:10580000F7B800200CF0F4B808B50021034809F0FF
:105810007FFEBDE80840FEF75FBA00BF64DD020806
:1058200038B55320FFF710FBF0B1364B1868D8B1EC
:105830000246154612F9014B34F0200111D0452CD7
:1058400001D0652CF5D100212970186821F0E2FE05
:105850002C702D4914F074FD14F074FF2B4B18605C
:1058600038BD21F0D7FEF4E75820FFF7EDFA78B9FC
:105870005920FFF7E9FA58B95A20FFF7E5FA38B985
:105880004520FFF7E1FA18B9BDE838400DF08AB9B4
:105890000DF0AEF95820FFF7D7FA68B11C4BD3F8DA
:1058A000802093F88C10012312688B401361194AF1
:1058B000137823F0010313705920FFF7C5FA68B17C
:1058C000134BD3F8102193F81C11012312688B405D
:1058D0001361104A137823F0020313705A20FFF764
:1058E000B3FA0028BCD00A4BD3F8202293F82C122C
:1058F000012312688B401361064A137823F00403D6
:105900001370ADE7B422002000007A44F0050020B7
:10591000A8CF02084327002038B5FEF749FC4248CB
:10592000FEF73AFC414B424C1B6813F4802F1CD00D
:10593000404B997C404B11B91960012014E03F4A5B
:10594000106842184156A1F13000C0B2092805D9AB
:105950002E294BD15178303909294BD81A60FFF7DD
:10596000BBFA002854DA00202070354D2078354CE1
:10597000FEF772FC3448FEF70FFC2968206814F02B
:10598000D7FB01463148FEF747FC6968A06814F070
:10599000CFFB01462E48FEF73FFCA968206914F0B2
:1059A000C7FB01462B48FEF737FC2B48FEF7F4FBFC
:1059B0002968606814F0BCFB01462448FEF72CFC03
:1059C0006968E06814F0B4FB01462148FEF724FC46
:1059D000A968606914F0ACFB01461E48FEF71CFC88
:1059E000BDE838400A211D48FAF7A4BD2D2904D08E
:1059F0002B2902D000221A609FE792F90100A0F142
:105A00003001C9B20929A9D92E28F3D19178A2E78A
:105A1000FFF762FAFF2890DCFFF75EFAC0B20030B1
:105A200018BF0120A0E700BF6DDD0208B0220020F2
:105A30003406002092220020B42200208C22002074
:105A40008C2700201C0600207DDD02087EF702085E
:105A5000D5F30208D1F8020885DD020834100020D1
:105A600010B50C46FFF7F0F938B1054B186820B1B6
:105A70000A22002121F0AEFE04B2204610BD00BF74
:105A8000B422002038B55020FFF7DEF990B3002192
:105A90005020FFF7E5FF4FF0FF3105465320FFF799
:105AA000DFFF431C022B044624D868B2002821DB08
:105AB000FEF7EEF818B1BDE83840FEF7F7B8EDB2E2
:105AC0000DF096F802212846FDF732FB621C0AD041
:105AD000631E5C425C412846FDF7ACFBA04209D046
