:020000040800F2
:1000000000C00020A5030008910D0008950D000810
:10001000990D00089D0D0008A10D0008DF140008CF
:10002000DF140008DF140008DF140008DF140008E4
:10003000DF140008DF140008DF140008F1140008C2
:10004000DF140008DF140008DF140008DF140008C4
:10005000DF140008DF140008E50D0008050E000895
:10006000250E0008450E0008650E0008350C000836
:100070004D0C0008650C0008810C00089D0C000860
:10008000B90C0008D50C0008F9090008DF140008B5
:1000900015210008DF140008DF140008850E000891
:1000A00025180008491800086D180008A518000850
:1000B000F918000869190008D9190008B1110008D9
:1000C000C9110008BD110008D5110008DF1400088F
:1000D000DF140008811E0008D11E0008211F00083F
:1000E000C90E0008DF140008DF140008011B000817
:1000F000251B0008491B0008811B0008510A000845
:10010000DF140008DF140008491A0008DF14000893
:10011000711F0008C11F0008B91A0008DD1A000885
:10012000F10C0008090D0008210D00083D0D000824
:1001300010B5054C237833B9044B13B10448AFF321
:1001400000800123237010BD181000200000000063
:1001500048AA020808B5034B1BB103490348AFF393
:10016000008008BD000000001C10002048AA020802
:1001700010B512490A2309220968114800F0EAF96A
:1001800010490323022209680F4800F0E3F90F49E0
:100190001B231A2209680E4800F0DCF90D492B23B5
:1001A0002A2209680C4800F0D5F9BDE810400B4937
:1001B00032232C2209680A4800F0CCB984020020BE
:1001C00034100020880200204C1000208C020020F7
:1001D000641000207C0200207C100020800200209F
:1001E0009410002010B5044600F088FC034B204614
:1001F000BDE81040197800F0E8BB00BF16000020F1
:10020000F8B50446056801F0CFF9002223685B01C8
:1002100003F184431A6080232B600123AB622A61BF
:10022000EA606B61637973B1012B0FD001222368FF
:100230005B0103F18443C3F8802223685B0103F16F
:1002400084431A60F8BD4FF400436B644FF6FF72AD
:1002500000252368DA626E1CF7B23946204601F0A9
:10026000B9F9E8B148F6FF72236817F0010F03F1FE
:10027000340343F8252014BF6FF0FF026FF47F4270
:1002800023684FEA650503F1180353F8251001EAC6
:10029000020114BF68224FF4D0420A4343F82520DC
:1002A000042E3546D7D1C1E77047000038B5002588
:1002B000264A274C1368022043F01003136000F015
:1002C00025FE002000F0E2FF65602368182023F47B
:1002D0000023236000F0E6FF102000F0E3FF00F0B1
:1002E00043F8A560102000F0D1FF102000F0F7FFC8
:1002F0000028FAD000F039F8164800F0FDFF182069
:1003000000F0C4FF182000F0EAFF0028FAD0022015
:1003100000F0ACFF00214FF0006000F08BFF0E48B2
:1003200001F0DEF800F038F80C4B188800F0CEFB36
:100330000B4800F0CFFB0B4801F010F900F02EF84D
:1003400000F02DF8FFF7B0FF38BD00BF00200240DD
:10035000001002400C0000203F1901001400002092
:10036000E5010008010200087047002108B50846B1
:1003700001F010F84FF48061012001F00BF800212A
:10038000022001F007F82D2001F014F8BDE8084024
:100390000021032000F0FEBF00F0CCBD704700F04C
:1003A00008BE000001498D460149084700C00020F1
:1003B000B503000808B5114B1A68114B9A4213D1C6
:1003C000104B114A934213D323F002FC0022114632
:1003D000104602F039FE0D4B7BB123F095F952F82F
:1003E000041B043343F8041C09498B42F7D3E7E7A5
:1003F0000022043343F8042CE3E7FEE76007030818
:100400000000002018100020E03500200937020805
:100410001810002010B50D4B1A680AB90C4A1A6062
:100420001A680C49891A814204DB09494442511A6D
:10043000A14207DA23F062F90C234FF0FF32036088
:10044000104610BD10441860FAE700BFAC10002041
:10045000E0350020607C0328002070474FF40053F3
:1004600000204B607047012070474FF0FF3070470D
:100470000020704710B50C46FFF7FAFF20700120EE
:1004800010BD704770B515460C468E18B44201D1A8
:10049000284670BD14F8010BFFF7F3FFF6E7FEE7FF
:1004A000C38882889B1AC2888188914282BF028950
:1004B00001329B1898B2704710B50369044658681A
:1004C000FFF7EEFF88B123695B689A88196892B2DA
:1004D000885C99881A89C0B292B28A420FBF002202
:1004E0009A88013292B29A8010BD4FF0FF30FBE73C
:1004F00008B503695868FFF7D3FF08BD03695B6857
:100500009988DA8892B28A421FBF9A881B6892B291
:10051000985C14BFC0B24FF0FF3070470269916819
:100520008888CB889BB28342FAD1126813685B0635
:10053000FCD5704713B504698DF8071001220DF141
:100540000701204601F091FB0028F7D0012002B0FE
:1005500010BD000030B54FF0000C4FF47A75C0E9C3
:1005600001C5034D016105600275437530BD00BFD3
:1005700098BF02082DE9F74303690446DB68884603
:100580008B42914625D3067D134D3601AB19477D2D
:10059000586818B10022597B01F0DEF8206901F09B
:1005A00019FB39016A18127BAB19CDF804901B7B3B
:1005B000695800932069AB5901F0F5FB2069424668
:1005C000002101F017FC206903B0BDE8F04301F001
:1005D00027BB03B0BDE8F08360BC02080022FFF730
:1005E000C9BF0000044B02791B789A4202BF034B3B
:1005F0001B681860704700BFD0100020D410002086
:10060000002310B50446036072B6094B1931197006
:10061000084B1860084800F0A1FF62B6236823B9B0
:10062000064A4421064802F0CDFC204610BD00BF1A
:10063000D0100020D4100020E5050008B4BF020847
:10064000C6BF020808B501211048FFF7D9FF0221F3
:100650000F48FFF7D5FF03210E48FFF7D1FF042114
:100660000D48FFF7CDFF05210C48FFF7C9FF062114
:100670000B48FFF7C5FF07210A48FFF7C1FFBDE898
:10068000084008210848FFF7BBBF00BFB01000209A
:10069000B4100020B8100020BC100020C0100020B2
:1006A000C4100020C8100020CC100020F8B5064669
:1006B0000C4615468F18A74206D0336814F8011B64
:1006C0001B6830469847F6E72846F8BD70B50546E2
:1006D0000C46084649B124F037FB2B6802462146F8
:1006E0002846BDE870409B68184770BD0368C9B2D2
:1006F0001B68184703685B68184738B50D21054625
:10070000FFF7F4FF0A2104462846FFF7EFFF2044D5
:1007100038BD38B50546FFF7EDFF04462846FFF71C
:10072000ECFF204438BD2DE970439046994690B0C7
:1007300058EA090306469DF8585007D13021FFF7C3
:10074000D5FF0125284610B0BDE87083002440463F
:1007500049462A46002318F0ABFE804689460134FC
:100760000DEB040303F8012C58EA0903EFD100252F
:10077000013C1DF804103046092994BF303137314F
:1007800049B2FFF7B3FF0544002CF1D1DAE72DE9B8
:10079000F0411D46002A75F1000307461446069EE7
:1007A00005DA2D21FFF7A2FF644265EB4505F6B29D
:1007B000069622462B463846BDE8F041FFF7B3BF08
:1007C00007B5CB1700920A46FFF7E1FF03B05DF8CB
:1007D00004FB38B50546FFF7F3FF04462846FFF74C
:1007E0008CFF204438BD07B5CB1700920A46FFF7AF
:1007F000CEFF03B05DF804FB37B5CB1700920A4675
:100800000546FFF7C4FF04462846FFF776FF20445D
:1008100003B030BD07B5D2B2009200230A46FFF7FD
:1008200082FF03B05DF804FB37B5D2B2009200231B
:100830000A460546FFF777FF04462846FFF75DFFA7
:10084000204403B030BD00002DE9F34717461E4693
:100850008246002200233846314618F01DFA9DF8E2
:1008600028504FF00104F8B143A3D3E900233846E0
:10087000314618F007FA00B90446E4B2002200231A
:1008800038463146C4B118F0E9F918B12D21504667
:10089000FFF72CFF04463C495046FFF72BFF04446A
:1008A000204602B0BDE8F08735A3D3E900233846DF
:1008B000314618F0DDF9DEE718F0D0F930B12D211E
:1008C0005046FFF713FF044606F100464FF00008BC
:1008D00000202E495FFA88F39D4206D900222C4B56
:1008E00018F074F808F10108F4E73A46334617F0B7
:1008F0008DFD06460F4618F0F3FD0A2302460093CD
:1009000080460B4650468946FFF741FF0444002DC0
:10091000C6D04046494617F001FF02460B46304616
:10092000394617F071FD06460F4650461949FFF744
:10093000E1FE0444013DEDB2FF2DB1D0144B002285
:100940003046394617F018FF0F46064618F0AEF944
:100950000A22014680465046FFF732FF04444046D3
:1009600017F0A0FE02460B463046394617F04CFD04
:1009700006460F46DEE700BF800350726C92DF43ED
:10098000800350726C92DFC330C002080000E03F69
:1009900000002440ABDF02089DF800100091FFF733
:1009A00053BF704710B50446007900F0C1FC2079B0
:1009B000BDE8104000F0D4BC026841F48011936897
:1009C00023F46023194391607047002330B51C461F
:1009D0001D4603EB4302072B01FA02F203F1010368
:1009E000D8BF15430A2B44EA0204F2D10368DD6044
:1009F00003681C6130BD000070B5144C23681B688F
:100A00001D68A90707D51A6822F002021A60236838
:100A10009B6803B198476A0709D523681A68136869
:100A200023F00403136023681B6903B19847EB07A5
:100A30000BD523681A68136823F001031360236839
:100A4000DB6813B1BDE87040184770BD1C00002082
:100A500070B5144C23681B681D68A90707D51A6870
:100A600022F002021A6023689B6803B198476A0764
:100A700009D523681A68136823F0040313602368F8
:100A80001B6903B19847EB070BD523681A681368F5
:100A900023F0010313602368DB6813B1BDE87040E5
:100AA000184770BD24000020012203685B0103F198
:100AB000844303F58673191F1A6018680028FCD157
:100AC00043F8042C0B68002BFCD17047014604202E
:100AD00000F060BC10B50446054B1868A047054BF4
:100AE0001868A047044B18682346BDE81040184713
:100AF0001C000020200000202400002010B5044627
:100B0000FFF750FF20464FF46021FFF755FF012209
:100B1000236820465B0103F18443C3F85021236816
:100B20005B0103F18443C3F80021BDE81040FFF7E7
:100B3000BBBF007900F0FCBB70B5142401394C43F5
:100B40000368054608331B591646DB0704D5074AD8
:100B5000DC21074802F036FA2B6808331A5922F4D0
:100B6000405242EA06321A5170BD00BF3FC002082F
:100B700065C0020870B5142401394C43036805466A
:100B800008331B591646DB0704D5054AEA210548F8
:100B900002F018FA2968083121444E6070BD00BF88
:100BA0003FC0020865C0020800EBC10340F83120D5
:100BB00093F90430002B08DB0122591103F01F03C5
:100BC00002FA03F3014A42F82130704700E100E0E5
:100BD00014220368013902FB01310123490101F1AB
:100BE0008441C1F80031704714220368013902FBC7
:100BF00001310023490101F18441C1F800317047FE
:100C00002DE9F04114251C4690464B1E5D430668B5
:100C1000FFF7EAFF9DF81C30240244EA8324089B76
:100C200008361C43069B77197451FB60C7F808808F
:100C3000BDE8F08110B5044B1C68A3681BB1984750
:100C4000012223685A6010BD6000002010B5044BDB
:100C50001C6823691BB19847102223685A6010BD95
:100C60006000002010B5054B1C68A36923B19847AC
:100C70004FF4807223685A6010BD00BF60000020EE
:100C800010B5054B1C68236A23B198474FF4805276
:100C900023685A6010BD00BF6000002010B5054BEE
:100CA0001C68A36A23B198474FF4803223685A60C6
:100CB00010BD00BF6000002010B5054B1C68236B01
:100CC00023B198474FF4801223685A6010BD00BFCB
:100CD0006000002010B5054B1C68A36B23B198473A
:100CE0004FF0807223685A6010BD00BF6000002082
:100CF00010B5044B1C68A3681BB1984701222368F8
:100D00005A6010BD6400002010B5044B1C682369B4
:100D10001BB19847102223685A6010BD6400002060
:100D200010B5054B1C68A36923B198474FF4807236
:100D300023685A6010BD00BF6400002038B5104C15
:100D4000636CD8070BD52368D90408D50D4B1D68F3
:100D50002B6A23B198474FF480522B685A60A36DD9
:100D6000DA070BD52368DB0308D5064B1C68A36A9A
:100D700023B198474FF4803223685A6038BD00BFD2
:100D80000004024064000020000000000000000099
:100D9000012007E0022005E0032003E0042001E039
:100DA0000520FFE70D4A0121116072B60C4A0021AF
:100DB0001160074902B4084902B486B005498E465D
:100DC000704700BFAFF30080AFF30080AFF3008047
:100DD00000000061F9FFFFFFB12F000814ED00E0F3
:100DE00010E000E008B5054A136833B15068984731
:100DF0000122034B5A6100BF00BF08BDD81000207C
:100E00000004014008B5054A936833B1D06898479B
:100E10000222034B5A6100BF00BF08BDD81000205A
:100E20000004014008B5054A136933B15069984779
:100E30000422034B5A6100BF00BF08BDD810002038
:100E40000004014008B5054A936933B1D069984759
:100E50000822034B5A6100BF00BF08BDD810002014
:100E60000004014008B5054A136A33B1506A984737
:100E70001022034B5A6100BF00BF08BDD8100020EC
:100E8000000401402DE9F041002705240C4DD5F860
:100E900014800126A64018EA060F08D0094BE1008D
:100EA00053F834201AB10B44586890473743013443
:100EB0000A2CEED16F6100BF00BFBDE8F08100BF1A
:100EC00000040140D81000202DE9F04100270A2439
:100ED0000C4DD5F814800126A64018EA060F08D05C
:100EE000094BE10053F834201AB10B44586890477D
:100EF00037430134102CEED16F6100BF00BFBDE855
:100F0000F08100BF00040140D8100020034A13689C
:100F100023F0070318431060704700BF0020024011
:100F200010B50446007900F003FA2079BDE81040BE
:100F300000F016BA08B50748FFF7F2FF0648FFF7BA
:100F4000EFFF0648FFF7ECFFBDE808400448FFF755
:100F5000E7BF00BFD8000020E0000020E80000202C
:100F6000F000002070B50F250368CE0801F00700DF
:100F7000840053F82600092A05FA04F520EA05053D
:100F800014BF10460820A0402843082A43F8260032
:100F900007D10120DA6800FA01F122EA0101D960E3
:100FA00070BD092AFCD10122D86802FA01F101437F
:100FB000F5E708B5032000F0BBF9BDE808400320C1
:100FC00000F0CEB903681A6812F4985FFBD11A6872
:100FD00042F480721A60704703681A6812F4985FCE
:100FE000FBD11A6842F400721A600268136813F4A5
:100FF000985FFBD17047000070B502684668516980
:1010000092695D4AB5781268CB07044605F0010580
:10101000C26014D50023F38000F0E2F82268536820
:1010200043F48063536025B12268136843F48063FE
:10103000136000213388226845EA4303136111F0ED
:101040000A0F10D0B388002D58D0012B0AD1226886
:101050002046136823F480631360A38B012B4AD9C5
:10106000FFF7B0FF002101F08402802A16D1A58B82
:10107000002D5CD0F388B1685A1CF2802268CB5CEA
:101080001361F288B3889A4207D12268536823F427
:1010900080635360A38B013BA383002101F0840292
:1010A000842A0DD1A18B2046002947D0FFF78AFF63
:1010B00022685369D907FCD5002163680C3363604B
:1010C0004B0654D52368B2681969F388581CF08020
:1010D000D154B388F288591E8A423ED122682046F4
:1010E000136823F480631360A38B022B31D9BDE80E
:1010F0007040FFF767BFFFF76FFFB3E7012B08D919
:10110000F388B1685A1CF2802268CB5C13612946CF
:10111000A9E7002BFBD12046FFF75EFF226853684A
:1011200023F400735360022384F823309AE7134AB0
:1011300040F28511124801F045FFAEE7FFF74CFF82
:101140002268536823F400735360022384F8233029
:10115000B6E7BDE87040FFF73FBF9A4207D1A38BC7
:10116000013B9BB2A3831BB9022384F8233070BDDB
:1011700063680C336360FAE77835002030CD0208ED
:10118000F5C0020808B50268536903F47063836010
:101190000023536102689361FFF71EFF02685368E2
:1011A00023F4E0635360FF2380F8233008BD000080
:1011B0000148FFF721BF00BFF80000200148FFF7FA
:1011C0001BBF00BF1C0100200148FFF7DBBF00BFB1
:1011D000F80000200148FFF7D5BF00BF1C01002028
:1011E00010B50446002190F9210000F00FF894F9A1
:1011F00022000021BDE8104000F008B84AF6AA22FB
:10120000014B1A60704700BF003000400028A8BFA3
:1012100000F160404FEA0111B8BF054BC9B2B5BF3C
:1012200000F00F0000F56140195480F8001370477A
:1012300014ED00E010B5002421F0604121F07F01A1
:10124000064A0143916060B20F210134FFF7DEFFCF
:101250003C2CF8D1F02382F8233010BD00ED00E0E3
:10126000014B13F81000704730C20208064B5A6851
:1012700022F0030202435A6080005A6802F00C0216
:101280008242FAD1704700BF00100240030AC2B286
:10129000012003F1804303F50433196890400843AB
:1012A000186070470121030A03F1804303F50433FA
:1012B0001A68C0B201FA00F022EA00001860704714
:1012C000030A03F1804303F504331A680123C0B213
:1012D00003FA00F0104214BF184600207047030ABA
:1012E00003F1804303F504331A680223C0B203FA02
:1012F00000F010407047000038B5436805461820DC
:101300001C68FFF7DDFF20B1064A8321064801F083
:1013100059FE064A2968536823F474130B43234388
:10132000536038BD14C20208AAC10208001002406E
:1013300010B50446FFF794FF074B53F820200748E9
:1013400000EB4400437803EBC20301229B0003F14E
:1013500084431A6010BD00BF4001002030C2020863
:1013600010B50446FFF77CFF084B53F820200848CF
:1013700000EB4400437803EBC20301229B0003F11E
:1013800084431A6000221A6010BD00BF580100207B
:1013900030C2020810B5054A054C536854F82000C5
:1013A00023EA00030B43536010BD00BF001002404E
:1013B0005CC1020810B50446FFF752FF074B53F813
:1013C0002020074800EB4400437803EBC2030022CF
:1013D0009B0003F184431A6010BD00BF4C01002044
:1013E00030C2020801EBC000800000F184400260BE
:1013F000704710B504460079FFF79AFF2079BDE8E1
:101400001040FFF7ADBF012206210068FFF7EABFD9
:10141000002206210068FFF7E5BF10B50C46016801
:1014200003464A6822F0E0024A600268126862409D
:1014300012F4205F01D0FFF7EBFF1A681846146022
:10144000BDE81040FFF7DFBF134343F00403194327
:10145000FFF7E3BF0122006811460430FFF7C2BF67
:101460000068002201210430FFF7BCBF00680122A0
:1014700000210430FFF7B6BF002203685B0103F1CF
:101480008443C3F880207047F8B51046069C9DF849
:101490001C709DF820609DF8245081B10B223946C4
:1014A0002046FFF75FFD042231462046FFF75AFD34
:1014B0000B2229462046BDE8F840FFF753BD1946E8
:1014C0000422FFF74FFD042239462046FFF74AFD6C
:1014D0000B2231462046FFF745FD0422E9E7FEE7EF
:1014E0000722024B58601A60704700BF10E000E00E
:1014F000044A136801331360034B1B6803B1184798
:10150000704700BF783500205811002011F0010FFE
:1015100070B501F1FF340DBF082500256FF0FF0104
:101520006FF47F410068C4F34004183050F8246021
:1015300013433140AB400B4340F8243070BD026888
:101540004B1E02F1404220329B0003EBC2030122FA
:101550009B0003F184431A607047000010B50446F5
:101560000948A0470948A0470948A0470948A0479B
:101570000948A0470948A0470948A0472346BDE8B5
:1015800010400848184700BF84010020AC0100202B
:10159000D0010020F4010020180200203C020020AD
:1015A000480200205402002010B504460079FFF7DD
:1015B000BFFE2079BDE81040FFF7D2BE00230268CD
:1015C00013600268D3604279012A9CBF02681362EB
:1015D0007047000038B54B1E032B0C46057905D922
:1015E0000E4A40F205110E4801F0ECFC1E2D10D9F8
:1015F000212D0ED0202D0ED9222D01D0252D04D144
:10160000022C8CBF0020012038BD631E5842584177
:10161000FAE70120F8E70020F6E700BF8CC20208D5
:10162000ADC202088B1C10B440F82320012342797C
:101630008B40DB43F2B1012A41F65F6218BF012201
:101640001340012204682361036803F140430C3313
:1016500001EBC3039B0003F184431A6042790379D1
:10166000002A2FD1072926D8DFE801F00716161621
:10167000161B1B2041F6FF62E2E71A2B0CBF192351
:101680002C230122590903F01F0302FA03F3214A14
:1016900042F8213010BC70471A2B0CBF1B232E239D
:1016A000EFE71A2B0CBF1A232D23EAE71A2B0CBFE6
:1016B00018232B23E5E74FF4CA71174A174810BCCB
:1016C00001F080BC1B3B0C2B1CD8DFE803F01F078C
:1016D00021090B0D1B0F1113151719001D23D0E73E
:1016E0003223CEE73623CCE73723CAE71823C8E7EF
:1016F0001923C6E71A23C4E72B23C2E72C23C0E72C
:101700002D23BEE7044A4FF4E271D7E71C23B8E764
:101710001E23B6E700E100E030CD0208ADC20208AA
:101720000022036803F140430C3301EBC3039B0029
:1017300003F1844302311A6040F82120704738B524
:1017400004460D4613460022FFF7E0FE29462046D8
:10175000BDE83840FFF7F3BEF8B54D1EEBB2032BE2
:1017600004460E46174604D92B4AD9212B4801F0CE
:1017700029FC6379022B04D1294ADC21274801F096
:1017800021FC6379022B16D0042F14D8DFE807F070
:1017900003142B2E3C0031462046FFF7C1FF23687F
:1017A000AD0003F14043203305EBC3050023AD003A
:1017B00005F184452B60F8BD0022236803F1404306
:1017C0000C3306EBC3039B0003F184431A60082328
:1017D000602231462046FFF799FE31462046BDE89B
:1017E000F840FFF7ACBE00231022F2E74FF2F112EF
:1017F00023689A61032223689A60012223685B01AF
:1018000003F184431A60D6E731462046BDE8F8402C
:101810000122FFF794BF00BF16C30208ADC2020841
:1018200032C3020810B5074A1468E36821690B4007
:101830001B0606D5536A23B19847236923F080031A
:10184000236110BD8401002010B5074A1468E368C5
:1018500021690B40DB0706D5936823B198472369BC
:1018600023F00103236110BD84010020F8B50C4D65
:101870002F68FE683B691E4016F0400403D02C6AB6
:101880000CB1A0474024B30604D5EB6913B19847C7
:1018900044F020043B6923EA04043C61F8BD00BF26
:1018A00084010020F8B5134D2F68FE683B691E4087
:1018B00016F0100403D0AC690CB1A0471024310716
:1018C00004D56B6913B1984744F00804720704D536
:1018D0002B6913B1984744F00404B30704D5EB68AF
:1018E00013B1984744F002043B6923EA04043C61C5
:1018F000F8BD00BF84010020F8B51A4D2F68FE68BE
:101900003B691E4016F0400403D02C6A0CB1A0477E
:101910004024F30604D5AB6913B1984744F0100492
:10192000300704D56B6913B1984744F00804710778
:1019300004D52B6913B1984744F00404B20704D5C9
:10194000EB6813B1984744F00204F30704D5AB6881
:1019500013B1984744F001043B6923EA04043C6155
:10196000F8BD00BFAC010020F8B51A4D2F68FE6825
:101970003B691E4016F0400403D02C6A0CB1A0470E
:101980004024F30604D5AB6913B1984744F0100422
:10199000300704D56B6913B1984744F00804710708
:1019A00004D52B6913B1984744F00404B20704D559
:1019B000EB6813B1984744F00204F30704D5AB6811
:1019C00013B1984744F001043B6923EA04043C61E5
:1019D000F8BD00BFD0010020F8B51A4D2F68FE6891
:1019E0003B691E4016F0400403D02C6A0CB1A0479E
:1019F0004024F30604D5AB6913B1984744F01004B2
:101A0000300704D56B6913B1984744F00804710797
:101A100004D52B6913B1984744F00404B20704D5E8
:101A2000EB6813B1984744F00204F30704D5AB68A0
:101A300013B1984744F001043B6923EA04043C6174
:101A4000F8BD00BFF4010020F8B51A4D2F68FE68FC
:101A50003B691E4016F0400403D02C6A0CB1A0472D
:101A60004024F30604D5AB6913B1984744F0100441
:101A7000300704D56B6913B1984744F00804710727
:101A800004D52B6913B1984744F00404B20704D578
:101A9000EB6813B1984744F00204F30704D5AB6830
:101AA00013B1984744F001043B6923EA04043C6104
:101AB000F8BD00BF1802002010B5074A1468E3689B
:101AC00021690B40DB0706D5936823B1984723694A
:101AD00023F00103236110BD3C02002010B5074A2A
:101AE0001468E36821690B40DB0706D5936823B1CE
:101AF0009847236923F00103236110BD48020020A9
:101B000010B5074A1468E36821690B401B0606D527
:101B1000536A23B19847236923F08003236110BDE2
:101B20005402002010B5074A1468E36821690B408D
:101B3000DB0706D5936823B19847236923F0010397
:101B4000236110BD54020020F8B50C4D2F68FE68CB
:101B50003B691E4016F0400403D02C6A0CB1A0472C
:101B60004024B30604D5EB6913B1984744F0200430
:101B70003B6923EA04043C61F8BD00BF5402002025
:101B8000F8B5134D2F68FE683B691E4016F010042F
:101B900003D0AC690CB1A0471024310704D56B69A0
:101BA00013B1984744F00804720704D52B6913B1A8
:101BB000984744F00404B30704D5EB6813B1984781
:101BC00044F002043B6923EA04043C61F8BD00BF11
:101BD0005402002000223F2110B504464368103013
:101BE0009A801860DA801981A3689A80DA8004F1FB
:101BF000500219811A6094F89000FFF799FB94F94C
:101C00009130002B08DB0122591103F01F0302FA67
:101C100003F3024A42F8213010BD00BF00E100E0AA
:101C20000368DA6842F02C02DA60DA6842F40052A3
:101C3000DA60704710B5036881688C88CA8892B2F0
:101C4000A242FAD1DA68910402D51A685206F9D58F
:101C5000DA6822F40052DA60426893889BB2D3803B
:101C6000826893889BB2D38010BDF0B50B460646C0
:101C70000468B568581AAF88ED88ADB2BD4204D18A
:101C800025682D0601D5824210D8E36823F0800331
:101C9000E3609042B3680DD39A88DB889BB293428D
:101CA0001EBFE36843F08003E360F0BD13F8010B4F
:101CB0006060DEE7DD889F880135BD42ECD0DF88BB
:101CC0001D89ADB2BD4203D19D88ADB2002DE3D0D8
:101CD000DD8811F800C01F68ADB207F805C0DF88C5
:101CE0001D890130ADB2BD420FBF0025DD88013531
:101CF000ADB2DD80CDE77FB5064600240A23B1FBF7
:101D0000F3F203FB1213013401AD2819303300F84C
:101D1000013C1146002AF1D114F1FF3401D204B084
:101D200070BD2B5D8DF8033001220DF103013046AB
:101D3000FFF79BFF0028F7D0EEE703468288016893
:101D400092B2885C99881A89C0B292B28A420FBF57
:101D500000229A88013292B29A80704738B5C388BF
:101D600082880133934204460D4607D0C288038916
:101D70009BB2934214D183889BB28BB92046FFF764
:101D8000DCFFE38822689BB2D554E28823899BB2AA
:101D900093420FBF0023E38801339BB2E38038BD39
:101DA0004FF0FF30EDE770B51E4605460846114678
:101DB0000422059CFFF7D6F80B229DF81010304640
:101DC000FFF7D0F829686302CA6803F4F05322F4DD
:101DD000F0521204120C1343CB602A6824021369D8
:101DE00004F4405423F440531B041B0C1C431461A3
:101DF00070BD000070B5064615460C4641B900F0AE
:101E000007F9044620B90D4AAE210D4801F0DAF871
:101E100019226243AD006421B2FBF5F2B2FBF1F08E
:101E200001FB10231B013233B3FBF1F303F00F036B
:101E3000346843EA00139BB2A36070BD4BC3020831
:101E400057C3020810B50446084B1868A047084B52
:101E50001868A047074B1868A047074B1868A047A9
:101E6000064B18682346BDE810401847840200203E
:101E7000880200208C0200207C02002080020020CA
:101E800010B5104CE368980607D52368990604D569
:101E900061680D48C9B2FFF761FFE3681A060BD508
:101EA00023681B0608D509488288C3889BB29342E1
:101EB00003D0FFF742FF606010BDE36823F08003AA
:101EC000E360F9E7003801408C11002098110020F0
:101ED00010B5104CE368980607D52368990604D519
:101EE00061680D48C9B2FFF739FFE3681A060BD5E0
:101EF00023681B0608D509488288C3889BB2934291
:101F000003D0FFF71AFF606010BDE36823F0800381
:101F1000E360F9E700440040A4110020B011002064
:101F200010B5104CE368980607D52368990604D5C8
:101F300061680D48C9B2FFF711FFE3681A060BD5B7
:101F400023681B0608D509488288C3889BB2934240
:101F500003D0FFF7F2FE606010BDE36823F080035A
:101F6000E360F9E700480040BC110020C8110020E0
:101F700010B5104CE368980607D52368990604D578
:101F800061680D48C9B2FFF7E9FEE3681A060BD590
:101F900023681B0608D509488288C3889BB29342F0
:101FA00003D0FFF7CAFE606010BDE36823F0800332
:101FB000E360F9E7004C00405C110020681100204C
:101FC00010B5104CE368980607D52368990604D528
:101FD00061680D48C9B2FFF7C1FEE3681A060BD568
:101FE00023681B0608D509488288C3889BB29342A0
:101FF00003D0FFF7A2FE606010BDE36823F080030A
:10200000E360F9E7005000407411002080110020C7
:1020100008B590F89000FFF723F920B10128034894
:1020200018BF002008BD0248FCE700BF00A24A0418
:102030000051250230B548F28005094C226822F48F
:10204000804222F070022A4342402260236823F437
:10205000E04323F040032B434B40236030BD00BFDF
:10206000005C0040284B072818BF18701A78052A12
:1020700048D8DFE802F003131E232B364FF6FB711E
:10208000224A106C014011644FF43F411164062252
:102090001A701F4B1B685A7B1A7370474FF6FB71FF
:1020A0001A4A106C014011644FF43F41116404223C
:1020B00002E002225A7003221A7006E05A78013AAE
:1020C000D2B25A705A78002AF1D070470F490A6C80
:1020D00092B242F010020A6405221A700A225A7063
:1020E00070475A78013AD2B25A705A78002AECD125
:1020F0004FF6EF720549086C02400A64044A126800
:10210000517B11730622D7E780350020005C004028
:10211000740500202DE9F041694D6A4A2B68546C22
:102120001B68A4B223405E0506D56FF48063536438
:10213000654B1B685B6898472A68136823409804BE
:1021400042BF6FF400515F4B596413682340D904B8
:1021500006D56FF4C0525B4B00205A64FFF782FF34
:102160002B681A68224012050FD556490A6C92B2A4
:1021700042F0080042F00C0208640A641A7B5A73A9
:1021800003221A736FF4C0524A641A6822409705FA
:1021900042BF6FF400714B4A51641B682340DE0557
:1021A00006D56FF48072474B07205A64FFF75AFF39
:1021B0002B681B681C40240403D5424C676C3B040D
:1021C00001D4BDE8F0816FF4004317F00F0663649B
:1021D0004CD148F68003D4F8008018EA030FECD005
:1021E0001FFA88F3394D3A4E03F440524FF4005031
:1021F00003F03003202133802A80FFF71BFFF8060D
:1022000008F0800317D42BB9324A4FF4A271324838
:1022100000F0D8FE2B4A136823F4E14323F0700347
:102220001B041B0C136000F0A9FD31882888BDE851
:10223000F041FFF7FFBE43B1236823F4E14323F0ED
:1022400070031B041B0C2360EDE7236818F4006F78
:1022500023F070034FEA03534FEA1353236002D075
:1022600000F0AAFBE1E700F007FDDEE7B40004F1AF
:10227000804404F5B844276839040DD5236823F059
:1022800070031B051B0D23602A6806F180439268CA
:10229000013B52F8233098473A068ED5236806F161
:1022A000804623F4E14323F070031B041B0C2360DE
:1022B0002B68013E5B6853F8263098477DE700BFE6
:1022C00074050020005C0040883500207C3500202B
:1022D0007E350020C3C30208D7C30208800000F186
:1022E000804000F5B840036823F4804323F0700376
:1022F00043F4004343F080035940016070470000FD
:1023000018B90722024B1B681A820248704700BFA7
:10231000B0350020E40500200022012110B5104B4B
:102320001B689A720F4B19640F49086802600868AD
:1023300004681C644FF4E0545A640460086804683C
:102340001C644FF43F445A640460086800681864D1
:102350004FF48010054B18600B681A7310BD00BF56
:10236000B0350020005C00407405002000E100E072
:1023700013B5104B1A68137803F07F03212B16D185
:10238000022808D0222801D0022405E093780A4AC6
:1023900003F0030313700024084B1B6823B102A948
:1023A00001F8010D02209847204602B010BD02241A
:1023B000FAE700BFB0350020D8110020D41100206A
:1023C00021B901288CBF02200020704702207047ED
:1023D000054B1B689B78032B04D8044901EBC30110
:1023E00000F0BCBA00207047B0350020CC050020BA
:1023F000014900F0B3BA00BF88050020014900F090
:10240000ADBA00BF9005002037B5114C2268127894
:1024100002F07F02212A02D0022003B030BDA0F1D9
:102420002003012B0B4B0C4D1B6888BF002523B1EB
:1024300002A901F8010D02209847002DECD0236875
:1024400000249D615C822046A8472046E5E700BF46
:10245000B0350020D4110020012300082DE9F047F9
:1024600000254FF0C00948F68F1648F280074FF05C
:10247000400A434B434C1B68DFF838819D7283F858
:102480000990256523682846334043F40073236090
:10249000236803EA08033B4383F010032360226DA3
:1024A000394B520043F802A08022236D5B0003F1F8
:1024B000804303F5C0431A60236823F4E24323F00A
:1024C00070031B041B0C2360304B1B6893F82C100B
:1024D00000F072F84FF440512846FFF7FFFEA36862
:1024E0002946334043F4C063A360226D284B520059
:1024F00013444FF480721A60A268022002EA0802B4
:102500003A4382F02002A260FFF7E8FEE3685146FA
:102510003340E360226D1F4B520013444FF4887226
:1025200003201A6000F048F84FF440510320FFF7F1
:10253000D5FE636829461E406660226D164B520028
:1025400043F802906368012003EA08033B4383F0E9
:1025500020036360FFF7C2FE0122104B28461B6870
:102560001A7300F0EBFBFF220D4B1D600D4B1D603D
:102570000D4B1D600D4B1D600D4B1A70BDE8F087B3
:10258000B0350020005C0040086000408835002025
:10259000206000403860004010600040740500205A
:1025A000DC110020E0110020E8110020EC110020D7
:1025B000E4110020BF8FFFFF0D4B0E4A1B6D3E291B
:1025C00003EBC0004FEA400002440AD94B09C80699
:1025D00004BF03F1FF339BB29B0243F4004313603B
:1025E00070474B08C90748BF01339B02F7E700BF9C
:1025F000005C00400C60004010B5064C18B9012288
:1026000023681A8210BD044B1B681B68984720681A
:102610000A30F7E7B0350020AC35002010B5064C85
:1026200018B9012223681A8210BD044B1B689B68ED
:10263000984720680C30F7E7B0350020AC35002013
:1026400010B51E4B1C68002310B90223238210BD55
:102650001B4803802178024611F07F0112D1617A74
:102660008C0644BF02230370037848064CBF23F056
:10267000010343F001031370124B1B681B69984759
:102680000F48E4E70129E2D0022915D1217901F0B0
:102690000F039B0003F1804303F5B84309061B6851
:1026A00005D503F03003102BE6D10123E3E703F453
:1026B0004053B3F5805FF7E71846C8E7B035002010
:1026C00082350020AC3500202DE9F843234FDFF898
:1026D000A0803D682C8AD4B92E7A042E17D12049C7
:1026E0000B78012B0ED11F4B1A681F4B92B213446B
:1026F0005B001C6030230C70A8F800303B681E7231
:10270000BDE8F88310230726A8F80030F6E7AB8A67
:102710009C4294BF042602269C4228BF1C46AB69FB
:10272000204698478146002000F0B4FB224601462F
:10273000484600F052FB2146002000F0C7FB2B8AE0
:102740004FF440521B1B2B826B8A1C443023A8F889
:102750000030064B6C821A80D0E700BFB0350020F5
:10276000F0110020505C0040023000207C35002039
:102770007E35002010B50A4B0A491B6849789A78C3
:1027800091420AD3D97841B99C8834B99A72064BE0
:102790001B685B689847204610BD0220FCE700BF1D
:1027A000B0350020C8050020AC35002038B50F4AF0
:1027B0000F4D12682B6892699978187990472B68A9
:1027C00004469A7A7AB170B95A7962B9DB7853B90A
:1027D000084B1B68DB6898472B681A79DA729A787D
:1027E0001A73204638BD0224FBE700BF883500205D
:1027F000B0350020AC35002038B52B4B1B6818785D
:1028000010F07F0004D15A7A22F020025A7238BDAB
:10281000022847D15A88002AF9D15A79002AF6D1DC
:102820001979224D21F08000840004F1804404F5E0
:10283000B844226849B22D780029B4BF02F03002B2
:1028400002F4405285422DD962B39B7A53B30029DA
:10285000236811DA03F03003102B07D1C4B22046ED
:1028600000F004FB3021204600F0D8FA104B1B6822
:102870005B6998470020CAE703F44053B3F5805FD3
:10288000F4D10C4D58B90C4B93F82C1000F02CFBE4
:1028900023682B409BB283F440532360E6E700F0AB
:1028A000D2FAF5E70220B2E7B0350020C8050020D3
:1028B000AC3500208FBFFFFF9805002038B51B4BBB
:1028C0001B4D18682D78017921F08004A30003F1D5
:1028D000804303F5B8431A6849B20029B4BF02F037
:1028E000300202F44052A5421DD94488DCB9D2B16D
:1028F000827AC2B11A680029B5BF22F4E04222F4FC
:10290000804222F0400222F07002B5BF92B292B231
:1029100082F0100282F480521A60064B1B689B6999
:102920009847002038BD0220FCE700BFB0350020EA
:10293000C8050020AC35002008B5064B1A68537A4C
:1029400043F020035372044B1B68DB699847002057
:1029500008BD00BFB0350020AC35002010B5054BD8
:102960001C68628A18B98B889B1A238210BD08687C
:102970001044FBE7B035002008B50B4B002093F85E
:102980002C1000F0B1FA094B1B68187A082806D100
:102990004FF48052064B1A801022064B1A80A0F189
:1029A00009035842584108BD98050020B035002061
:1029B0007C3500207E35002073B5964C964E2168FC
:1029C00032680B7A092B16D0944B92B213445B00F9
:1029D0001B885B0003F1804303F5C0431A780A703B
:1029E0005978226851709988226851801989226823
:1029F00091809B89D380012223681A72DA885D78DE
:102A0000002A64D11A7812F07F024DD1092D03D12A
:102A1000FFF7B0FE40BB16E0052D20D193F9022050
:102A2000002A07DA08232268137202B0BDE870405A
:102A3000FFF7A2BFDA78002AF4D19A88002AF1D1F0
:102A40009B7A002BEED13268754B92B21344002270
:102A50005B001A603022734B1A800623E3E7032DD4
:102A600014D19A78012A08D06F4B28461B685B69FD
:102A70009847032828D10923D5E79A88002AF3D15B
:102A80005B7A9A06F0D5FFF757FFC3E7012DEBD12C
:102A90009A78012AE8D19A88002AE5D15B7A9B06C8
:102AA000E2D5FFF7A9FEB5E7012A04D10B2DDBD152
:102AB000FFF77CFEAEE7022AD6D1012DF1D0032D1F
:102AC000D2D1FFF7FBFEA5E70028ABD1BBE7062D6F
:102AD00012D11A7855065AD1DB78534A012B126865
:102AE00002D1D369DBB952E0022B01D1136AF9E7B5
:102AF000032B4CD1536AF5E7002D54D15988002996
:102B000045D15A6822F0FF02B2F5003F3FD11A7852
:102B100012F07F0216D19B88002B38D1434B002541
:102B20002268284655829361984728464FF6FF71E0
:102B300023681A8A8A4233D0022801D0002A55D14C
:102B400008222EE0012A0AD1374A187912689269C0
:102B50009047E0B923689B7A002BDFD117E0022A67
:102B600015D11A7902F00F018B00100603F1804392
:102B70002F4803F5B8431B6800784CBF03F03003BF
:102B800003F44053884202D912F0700FE4D0264B70
:102B900022681B6850781B6998470328C6D12368B0
:102BA00009221A7241E7082D04D11B785B06EED189
:102BB000204BB4E70A2DEAD11A7802F07F02012AED
:102BC000E5D19A7A002AE2D059880029DFD15A68E3
:102BD00022F0FF02B2F5803FD9D1134A187912686A
:102BE000926990470028D2D1134B98E793F90010CF
:102BF000002936DAD9880C4C019101982468824268
:102C00001CD9019A1A8294F82C209A82FFF75CFD55
:102C10000BE700BFB0350020505C004004300020BE
:102C2000023000207E350020883500204126000833
:102C3000C8050020F92500081D2600088A42E2D2B6
:102C400094F82C00824203D20021094A1170DAE77D
:102C500092FBF0F100FB1122002AD4D1044A012199
:102C6000F4E703221A724FF44052024B1A80DCE65A
:102C7000F01100207C350020F8B52A4E3468237A04
:102C8000032B01D0052B44D1A369B3B1258AA5B18B
:102C9000A28A954228BF154628469847238A0746A8
:102CA0005B1B2382638A00202B44638200F000F9BF
:102CB0002A460146384600F09FF8238A53B1002186
:102CC0004FF44052184B08461A8000F0FFF83022AB
:102CD000164B1A80228AA18A3368914209D80322AE
:102CE0001A7233681B7A32681372BDE8F840FFF736
:102CF00043BE0AB10522F3E7062119720C4B19688D
:102D00000C4B89B20B445B001A603022074B1A80CF
:102D1000E7E7072B03D1084B1B68DB6898470823BC
:102D2000E1E700BFB03500207C3500207E35002073
:102D3000505C00400230002088350020002210B591
:102D40000C4B1C78A24204D30B4B40F0800018605F
:102D500010BD02F1805303F5B8539B00196821F4AC
:102D6000E04121F070010904090C1143196001329E
:102D7000E8E700BFC80500204C5C004010B5134CCC
:102D800023681A7A022A01D0042A09D1FFF79CFC91
:102D900023681B7A22681372BDE81040FFF7ECBD70
:102DA000062A10D15A78052A09D11A78520606D176
:102DB0009878FFF7C3FF064B1B681B6A9847054BC3
:102DC0001B689B6898470823E4E700BFB0350020E4
:102DD000AC35002088350020704701F100510132E8
:102DE00001F540515210490002B9704730F8023BDA
:102DF000013A21F8043BF7E7002310B501F1005137
:102E0000013201F54051521049009A4200D110BDE3
:102E100051F8234020F813400133F6E7800000F119
:102E2000804000F5B8400368CA0623F4E04323F06D
:102E300040039BB248BF83F010038A0648BF83F06B
:102E4000200303607047800000F1804000F5B84027
:102E500003685B0409D5036823F4E04323F070039F
:102E60001B041B0C43F4804303607047800000F197
:102E7000804000F5B84003685B0609D5036823F479
:102E8000E04323F070031B041B0C43F0400303607A
:102E900070470000054B1B689BB203EBC00000F1BC
:102EA000005000F54050400000887047505C0040E2
:102EB000044B1B689BB203EBC000034B03445B0055
:102EC00018887047505C004004300020044B1B6899
:102ED0009BB203EBC000034B03445B0019607047D7
:102EE000505C0040023000200D4B0E4A1B683E290A
:102EF0009BB203EBC00002444FEA42020AD94B09DD
:102F0000C80604BF03F1FF339BB29B0243F40043A6
:102F1000136070474B08C90748BF01339B02F7E7AE
:102F2000505C00400630002013B504468DF80710B1
:102F300001220DF107012046FEF797FE0028F7D089
:102F400002B010BD38B505464C1E14F9011F01B979
:102F500038BDC9B22846FFF7E7FFF6E708B5134BBF
:102F600003221C6801212046FDF7FCFF00230121FC
:102F70001A46B2F5007F0CD072B1B3F5007F01D1D3
:102F800000230A449A420CD90225206805610133C6
:102F9000EFE74FF0FF31F0E7B3F5007F4FF00101AD
:102FA000EED020684FF40035F0E700BFD4C002082F
:102FB00008B5034B0BB100F083F862B6FFF7CEFF04
:102FC000C1300008F8B5144B06460D4617460BB342
:102FD00000F096F804461149FFF7B4FF3946204641
:102FE000FFF7B0FF0E492046FFF7ACFF3146204601
:102FF000FFF7A8FF0B492046FFF7A4FF294620460C
:10300000FEF779FE0A212046FFF78EFF0D212046AC
:10301000FFF78AFFFFF7CCFF01310008C1C40208A7
:10302000D7C40208D8C4020808B5044B23B100F085
:1030300067F80349FFF786FFFFF7BAFF0131000881
:10304000DBC40208FDF732B908B500F0B7FD00F0A7
:103050007FFEFCE720F002BE322870B50E4612D883
:10306000094B03EB00104568447B05B124B9074ABE
:103070002F210748FFF7A6FF2A6804F18043343266
:10308000013B42F8236070BD60BC020800C5020825
:1030900012C5020838B50C460546072104EB042486
:1030A00000F046F8A1B22846BDE83840FFF7D4BF8B
:1030B000002203685B0103F18443C3F800217047D9
:1030C0004FF0FF3310B50A4C0A48C4F88030C4F8FA
:1030D0008430FEF743FA0848FDF7FCFC0748FEF78A
:1030E000B1FE4FF4002323604FF48013236010BD22
:1030F00000E100E0BD150008B1300008351C0008F3
:1031000010B5094B094C18680B220221FDF72AFF64
:103110002068FEF75FFD20684FF416520021FEF78D
:1031200069FE206810BD00BFD0C0020888020020E0
:10313000322838B542D8082927D8DFE801F02D30E9
:1031400005171A1D05202300002404221C4B000132
:103150001D18297B1858FDF705FF686870B3697B57
:1031600004B3BDE838400122FEF7F6BA0024224637
:10317000ECE700240922E9E700240822E6E701241D
:103180000B22E3E701240F22E0E70E4A4C21BDE8C1
:1031900038400D48FFF716BF00240322D6E700246D
:1031A0000722D3E702684B1E02F1404220329B0007
:1031B00003EBC2039B0003F184431C6038BD00BFD6
:1031C00060BC020830CD020872C5020808B50121B2
:1031D0001048FDF715FA02210F48FDF711FA0321F7
:1031E0000E48FDF70DFA04210D48FDF709FA0521F7
:1031F0000C48FDF705FA06210B48FDF701FA0721F7
:103200000A48FDF7FDF9BDE8084008210848FDF728
:10321000F7B900BFF4110020F8110020FC110020C4
:103220000012002004120020081200200C120020BE
:103230001012002032280DD8074B000119181B5816
:10324000097B1B689A6801238B40134214BF01203D
:10325000002070470020704760BC0208322810B57B
:103260000ED8084B00011C181B58B1FA81F11A68DE
:103270000123207B49098340090103FA01F111610F
:1032800010BD00BF60BC02080A4A0B4B11689B6866
:1032900000BF00BF12688A42F6D14820C3F58C33C4
:1032A00003F5A073B3FBF0F34FF47A7000FB023028
:1032B000704700BF7835002010E000E038B50446C4
:1032C000FFF7E2FF05465CB1FDF76BFBFFF7DCFFA4
:1032D000401BB0F57A7FF6D3013C05F57A75F5D140
:1032E00038BD28B10C234343013B18460138FDD8B3
:1032F000704700000449054BCA6822F4E0621204DA
:10330000120C1343CB60704700ED00E00003FA0598
:10331000704701207047000013B5104C204615F08F
:1033200034F82046042114F0C9FF204602220C493B
:1033300014F0C8FF002302220A4900932046A0236C
:1033400015F026F8204615F019F8204615F008F873
:10335000204602B0BDE8104015F009B81C1200204C
:10336000EB0500201612002024280AD0252807D1BA
:103370000123054A32F81330044AC3F3890313804A
:1033800070470023F5E700BF16120020141200203A
:10339000044B03EB00135B6813B1C0B2FFF77ABEB6
:1033A000704700BF60BC0208024B0348196814F064
:1033B00083BF00BF1C0000201C120020054B1878A2
:1033C000C0F3C00020B1044BD878003018BF0120F2
:1033D000704700BFAC3300208C33002010B5074C81
:1033E000032294F84C10206CFDF7BCFD236C94F87C
:1033F0004C101A6801238B40136110BD60BC020899
:1034000000230138C0B20528F0B588BF1E464FF032
:10341000010798BF134A8BB098BF165C124C0196F7
:103420008DF810708DF81130029301ADCDE908339D
:103430000FCD0FC40FCD0FC42B6823600B4C20465B
:10344000E46613F0D8FC3146204613F0E6FC39461A
:10345000204613F0EFFC002120460BB0BDE8F04001
:1034600013F00EBDE8C502082C12002084340020A1
:1034700030B593B0FFF7A2FF30B9FF21134813B066
:10348000BDE8304013F038BD114D09AC0FCD0FC46D
:103490000FCD0FC42B680BAD23606C460FCD0FC44E
:1034A00095E8070084E8070009AB0CCB0421074826
:1034B00013F0F3FCFF21054813F01EFD04460348FA
:1034C00013F00BFD204613B030BD00BF8434002044
:1034D0002C120020F0B593B00F460646FFF76EFFA2
:1034E000014608B3144D09AC0FCD0FC40FCD0FC466
:1034F0002B680BAD23606C460FCD0FC495E8070019
:1035000084E8070009AB0CCB04210C4813F0C5FC80
:103510003B4632460021094813F0ACFD074813B082
:10352000BDE8F04013F0D9BC3B463246034813B027
:10353000BDE8F04013F09EBD2C1200208434002022
:1035400070B592B00646FFF739FFF8B1134D09ACDC
:103550000FCD0FC40FCD0FC42B680BAD23606C468D
:103560000FCD0FC495E8070084E8070009AB0CCB2A
:1035700004210B4813F091FC3146094813F006FE74
:10358000074812B0BDE8704013F0A7BC31460448AC
:1035900012B0BDE8704013F0F9BD00BF2C1200203E
:1035A00084340020F0B593B007460E46FFF706FFBF
:1035B00030B31A4D09AC0FCD0FC40FCD0FC42B681B
:1035C0000BAD23606C460FCD0FC495E8070084E86F
:1035D000070009AB0CCB0421114813F05EFC3946FF
:1035E0000F4813F0D3FD01234FF4007231460C480D
:1035F00013F0C0FD0A4813B0BDE8F04013F06DBCF5
:103600003946074813F0C2FD01234FF400723146DA
:10361000034813B0BDE8F04013F0ACBD2C120020FD
:1036200084340020054B0649002219600121C3E9BA
:10363000072219735A735A60704700BF2C1200207A
:1036400000093D000228F8B506460D4639D0052888
:1036500036D100262C4C0222236801215B0103F1A4
:1036600084431E602046FEF777F828494FF6FF7026
:10367000B1FBF5F11122814228BF014623685E6249
:103680009A62D8629A69204622F0FF029A615963D1
:103690005B0103F184430121DE611D4AFDF7C2FF96
:1036A00001213220FDF7B2FD012223685B0103F105
:1036B0008443C3F8802223685B0103F184431A60CA
:1036C000F8BD0027134C0246236801215B0103F17A
:1036D00084431F602046FEF73FF840F2E73223683C
:1036E0000D495F62B1FBF5F19A624FF6FF729142AC
:1036F00028BF1146DA6220465963084A0121FDF7C6
:1037000091FF31461C20CDE71802002000093D0042
:1037100089320108AC01002040190100054401086C
:1037200002280CD005280CD1074B1B685B0103F164
:103730008443D3F88401003018BF01207047034B45
:10374000F3E70020704700BF18020020AC01002002
:10375000013807289ABF024B53F820000020704719
:10376000F0C5020810B5C37804460BB111F01CFF78
:10377000204610BD30B51D4B91B01C78C4F3C00479
:10378000DCB100231A4D08AC8DF800308DF8033001
:103790000FCD0FC495E80F0084E80F000123154AF0
:1037A00008A9684612F02AF8044648B9002408A877
:1037B000FFF7D8FF6846FFF7D5FF204611B030BDB0
:1037C0004FF480520C49684611F090FD0028EDDB63
:1037D00003B2B3F5805F04DAFF22074BC254013015
:1037E000F6E7684611F0E0FEE1E700BFAC330020E9
:1037F000B033002010C602085012002030B5194B1B
:1038000091B01C78C4F3C0043CB30023164D08AC3F
:103810008DF800308DF803300FCD0FC495E80F0000
:1038200084E80F005223114A08A9684611F0E6FF08
:10383000B0B14FF480520E49684612F037F9044691
:10384000684611F0B1FEA4F580535C4208A85C41C3
:10385000FFF788FF6846FFF785FF204611B030BDAF
:103860000446F0E7AC330020B033002010C6020855
:1038700050120020F8B505460024944206D0084EA8
:103880000F5D2868264437540134F6E7A2B2184683
:103890000BF010FA2B6800201C442C60F8BD00BF10
:1038A000501200202DE9F74305460F4690461E466C
:1038B00000249DF828904445296810D00B4A2244E2
:1038C000535C8DF80730B9F1000F00D03B55012251
:1038D0000DF1070130460BF0EDF90134EBE7002064
:1038E0000C442C6003B0BDE8F08300BF50120020F0
:1038F000FDF784BC70470368C9B21B681847000015
:103900000023054A9A56824204D00133162BF8D17F
:1039100000207047012070476FC7020808B500F00B
:103920005FFABDE80840014800F048BA55C60208F1
:1039300008B50EF011F90EF07DF9FE200DF0A8FA91
:10394000BDE808400DF082BA124AD2F8803092F8F1
:103950008C101868012303FA01F109040161D2F8FF
:103960001011086892F81C1103FA01F109040161B1
:10397000D2F82012086892F82C1203FA01F1090417
:103980000161D2F8D01292F8DC22096893401B043E
:103990000B61704760BC0208044BD3F8D02293F847
:1039A000DC12012312688B401361704760BC02086F
:1039B000012130B4124BD3F88020106893F88C208A
:1039C00001FA02F202610F48027822F00104047049
:1039D000D3F81041256893F81C4101FA04F42C61D6
:1039E00022F003040470D3F8204293F82C322468A8
:1039F000994022F007022161027030BCFFF7CCBF72
:103A000060BC02083327002008B540F2E933013BCF
:103A100008D000BF00BF00BF42F62F22013A00BF0E
:103A2000FCD1F4E772B640F2E933013B08D000BFA5
:103A300000BF00BF41F29312013A00BFFCD1F4E78E
:103A400010F090F9FFF754FFFCE70000044608B5BA
:103A500010F088F900F0C4F9054800F0AFF9054806
:103A6000002C18BF20460AF0F7FFFFF7CDFF00BF7C
:103A70006DC6020864C6020870B5374B05461B7850
:103A8000032B01D803F046FF344B354A1B681468FA
:103A90009BB1344909680B44E31A002B0DDB00F09D
:103AA0009FF9314B3148196800F0A0F90A213048DC
:103AB000FFF721FF0020FFF7C9FF2E4B1B6843B122
:103AC0002D4908782D49097888420ED01268254B77
:103AD0001A602B4D00F0C4FE2B68E31A002B03DBA9
:103AE00064340DF0D1FF2C6070BD264A85BB1D49A2
:103AF00009680B44E31A002B2ADB1378002BE8D16A
:103B000001231370204AD2F88010086892F88C10B4
:103B100003FA01F101611D48017821F001050570EA
:103B2000D2F810512E6892F81C5103FA05F5356150
:103B300021F003050570D2F8205292F82C222D684E
:103B4000934021F007012B610170FFF725FFC0E7CB
:103B500000231370BDE700BF402400205C2200203A
:103B60007835002074220020842200201BC6020821
:103B700034100020F0050020FD2C0020FE2C002039
:103B8000542200205822002060BC02083327002065
:103B900008B50AF0A7FD02F069FB0020FFF76CFFF3
:103BA00010F0DCF90BF010F8034B1B781BB9BDE8E3
:103BB000084010F0F7BE08BD6022002037B5FFF7BF
:103BC00099FB4E4A136823F0E06343F000731360DF
:103BD0000FF0E2FB4FF4E1314948FCF7FFFC494BA1
:103BE00049481B6800F0EAF800F0F4F8FFF791FB91
:103BF000C507044602D5454800F0E0F8A00702D505
:103C0000434800F0DBF8610702D5424800F0D6F8DF
:103C1000220702D5404800F0D1F8A30602D53F485C
:103C200000F0CCF8FFF774FB3D4800F0C7F8202106
:103C30003348FFF760FE3B4800F0C0F80A213048E7
:103C4000FFF759FE00F0C6F8374800F0B7F83748DC
:103C500000F0B4F8364800F0B1F800F0BBF8354891
:103C600000F0ACF800F0B6F80020FCF7D3FB0DF143
:103C70000701091A304800F0C5F8304C4FF4A8612C
:103C80002F4800F0BFF80A211D48FFF734FE0AF064
:103C90007DFC0AF0EDFE04F0BBFF12F06FFE23780E
:103CA00023B90CF009FF08B101232370254C264DE0
:103CB0002168286815F098F869682060606815F038
:103CC00093F8A9686060A06815F08EF8A0600DF008
:103CD000BDF81E480FF04CFF0BF060FC0CF024FF09
:103CE0000EF0E2FF00F0F4F8FFF704FE01231A469D
:103CF0001946184600F0B0FA03B030BD0400014088
:103D000034100020783500207DE8020891C60208B2
:103D10009AC60208ABC60208BDC60208CEC6020893
:103D2000DFC60208E6C60208F4C6020804C7020895
:103D30000FC7020832C7020849C7020850220020F4
:103D400058C702084027002060270020A02F00202D
:103D500008B512F067FE124B1B789B0613D512F0C4
:103D600075FA03F091FAFFF7E3FD0BF0EFFB0FF0AC
:103D7000F9FF002108460FF053FD0022094B0A48C5
:103D80001A7003F01DFB094B1B78032B01D803F0BD
:103D9000C1FD03F035FC0CF0C3FFFFF7F9FED8E7D7
:103DA000AC330020F40500208DC60208402400201A
:103DB000014812F09FB800BF5922002010B50446F8
:103DC00014F9011B19B10248FFF795FDF8E710BD82
:103DD000341000200148FFF7F1BF00BF97C7020869
:103DE0000148FFF7EBBF00BF90C7020810B50C46B3
:103DF000FFF7E4FF2146BDE810400148FCF77ABC1C
:103E00003410002010B50C46FFF7D8FF2146BDE85E
:103E100010400A220148FCF7D3BC00BF3410002038
:103E200010B50C46FFF7CAFF2146BDE810400A2234
:103E30000148FCF7D8BC00BF3410002013B50C4675
:103E4000FFF7BCFF204614F03FFC0223024600931C
:103E500002480B46FCF7A0FD02B010BD3410002054
:103E600010B50C46FFF7AAFF2146BDE810400A2214
:103E70000148FCF7CFBC00BF34100020034A044BBC
:103E8000002814BF10461846FFF798BF73CC0208ED
:103E900086CB0208034A044B002814BF104618467C
:103EA000FFF78CBF85C702088AC7020810B5044611
:103EB000322C06D93220323CFFF700FA10F04EF8CF
:103EC000F6E72046FFF7FAF9BDE8104010F046B8D3
:103ED00010B5254CD4F804319BB107211020FFF711
:103EE00027F9D4F87431EBB107211720FFF720F937
:103EF000D4F864313BB3BDE8104007211620FFF72A
:103F000017B9032294F80C11D4F80001FDF72AF830
:103F1000D4F8003194F80C111A684FF480338B40B8
:103F20001361DEE7032294F87C11D4F87001FDF7E9
:103F300019F8D4F8703194F87C111A684FF4803372
:103F40008B401361D4E7032294F86C11D4F860011C
:103F5000FDF708F8D4F8603194F86C111A684FF442
:103F600080338B40136110BD60BC020838B52B4C08
:103F70000546D4F80431017833B31020FFF708FA6E
:103F8000D4F874316978002B2CD01720FFF700FA91
:103F9000D4F86431A978002B32D01620FFF7F8F955
:103FA0002B786A781344AA781344022BCCBF0122E1
:103FB00000221B4B1A7006DD1A4B9D421FBF2A8838
:103FC0001A80AA789A7038BD012300290CBF1021ED
:103FD000002194F80C219340D4F800218B40126802
:103FE0001361CDE7012300290CBF1021002194F8B3
:103FF0007C219340D4F870218B4012681361C7E78D
:10400000012300290CBF1021002194F86C2193405A
:10401000D4F860218B4012681361C1E760BC0208CC
:104020006622002063220020FF22024B1A705A7081
:104030009A707047632200202DE9F341D0F8008088
:104040000E684046176815F09DF90546384615F08C
:1040500099F931460446404615F08AF900BB3946C5
:10406000304615F085F9E8B9304615F08BF9FF2692
:10407000621B401BD31780FB060115F0C9F90A4BE0
:10408000C0B21A78824208D01870C0438DF806007A
:1040900001A8ADF80460FFF769FF02B0BDE8F08148
:1040A0002846E4E72046E2E7672200202DE9F341B5
:1040B000D0F800800E684046176815F063F9054691
:1040C000384615F05FF931460446404615F050F980
:1040D00010BB3946304615F04BF9F8B9304615F0AB
:1040E00051F9FF26621B401BD31780FB060115F018
:1040F0008FF90B4BC0B21A7882420AD01870002395
:104100008DF8040001A88DF805308DF80660FFF7E2
:104110002DFF02B0BDE8F0812846E2E72046E0E747
:104120006722002010B50B6804461B6908469847B3
:104130002379C0F3400210F01E0F60F3000362F316
:10414000410314BF0122002262F382032060237125
:10415000204610BD08B558210148FFF7CCFB08BD2B
:104160003410002008B559210148FFF7C4FB08BDF1
:104170003410002008B55A210148FFF7BCFB08BDE8
:104180003410002008B545210148FFF7B4FB08BDF5
:1041900034100020F7B53C2400680D46B0FBF4F75E
:1041A0004FF46161B7FBF4F3B0FBF1F104FB13735F
:1041B0008EB2A2B11821B6FBF1F2104C01FB1266CF
:1041C000B0FBF4F400932246B3B20D49284620F028
:1041D000A7FB0A2C34BF0820092003B0F0BD632ED2
:1041E0008AB205D80749284620F09AFB0520F4E753
:1041F0000549284620F094FB0620EEE78051010097
:104200006FC8020873C802087DC8020810B50446CA
:104210000C48FFF7D3FD102221680B48FCF704FB84
:1042200023799A0702D50948FFF7C8FD23795B0770
:1042300002D50748FFF7C2FDBDE810400548FFF76B
:1042400005BC00BFDCC7020834100020F7C7020815
:1042500008C802081CC80208F8B50D4617461E46D5
:10426000002800F095805248FFF7A8FDFFF772FF85
:104270005048FFF7A3FD504813F0C9FF044600283B
:1042800000F084804D48FFF799FD012C7CD04C480C
:104290004C4B022C18BF1846FFF790FD0A214A48E4
:1042A000FFF729FB003418BF01240DB34048FFF786
:1042B00085FDFFF757FF3F48FFF780FD434813F0A8
:1042C000A6FF0546002867D03C48FFF777FD012D83
:1042D00060D03B483B4B022D18BF1846FFF76EFDE0
:1042E000002D18BF01340A213748FFF704FBE4B260
:1042F0000FB32F48FFF762FDFFF73CFF2D48FFF794
:104300005DFD334813F083FF0546002848D02B4855
:10431000FFF754FD012D41D029482A4B022D18BF2B
:104320001846FFF74BFD002D18BF01340A2126481F
:10433000FFF7E1FAE4B206B31D48FFF73FFDFFF7D0
:1043400021FF1C48FFF73AFD224813F060FF0546A5
:1043500050B31A48FFF732FD012D23D01848194BEE
:10436000022D18BF1846FFF729FD002D18BF013494
:104370000A211548FFF7BFFAE4B2BCB1BDE8F84026
:10438000002115480AF080B9144885E70D4883E7F5
:1043900004468AE71148A1E70A489FE70F48C0E7AB
:1043A0000848BEE70D48DEE70648DCE7F8BD00BF79
:1043B00035C802083EC80208502E00204EC8020828
:1043C00031C8020829C8020834100020942E0020A9
:1043D000D82E00200C2E00205AC802082CC8020833
:1043E00030B589B004460D46014602A8FFF79AFE93
:1043F000029B013B03336BD8002D69D09DF80C2044
:1044000094F83F30900765D5013384F83F3094F835
:104410003F30092B08D90A213348FFF76CFAFFF720
:1044200099FE02A8FFF7F2FE9DF80C30D90722D5BD
:1044300094F83E30FBB90BF0C3F82C4A019090423F
:1044400094BF0022012204A901A8FFF7A3FE0A21BC
:104450002548FFF750FA04A92348FCF74BF92448F4
:10446000FFF7ACFCFFF776FE2248A18FFFF7CAFCEE
:104470002148FFF7A3FC9DF80C3013F0010F94F8CE
:104480003E302BD0042B1DD92046A58F13F069FD9B
:1044900090B1642D10D9A5F1320189B2A1872046CF
:1044A00013F03EFEFFF756FEA18F1448FFF7AAFC5B
:1044B0000A210D48FFF71FFA9DF80C2094F83E30B2
:1044C000D2070BD5013384F83E30012384F8403005
:1044D00009B030BD002B9AD0013B96E7002BF7D0F6
:1044E000002384F83E30F3E73410002080510100AF
:1044F000D8C402089DC70208C0C70208C5C7020881
:1045000030B589B004460D46014602A8FFF70AFE01
:10451000029B013B03336BD8002D69D09DF80C2022
:1045200094F83F30900765D5013384F83F3094F814
:104530003F30092B08D90A213348FFF7DCF9FFF790
:1045400011FE02A8FFF762FE9DF80C30D90722D5B4
:1045500094F83E30FBB90BF033F82C4A01909042AE
:1045600094BF0022012204A901A8FFF713FE0A212B
:104570002548FFF7C0F904A92348FCF7BBF82448F5
:10458000FFF71CFCFFF7EEFD2248A18FFFF73AFC76
:104590002148FFF713FC9DF80C3013F0010F94F83D
:1045A0003E302BD0042B1DD92046A58F13F0D9FC0B
:1045B00090B1642D10D9A5F1320189B2A1872046AE
:1045C00013F0AEFDFFF7CEFDA18F1448FFF71AFCE4
:1045D0000A210D48FFF78FF99DF80C2094F83E3022
:1045E000D2070BD5013384F83E30012384F84030E4
:1045F00009B030BD002B9AD0013B96E7002BF7D0D5
:10460000002384F83E30F3E734100020805101008D
:10461000D8C402089DC70208C0C70208C5C702085F
:1046200030B589B004460D46014602A8FFF77AFD71
:10463000029B013B03336BD8002D69D09DF80C2001
:1046400094F83F30900765D5013384F83F3094F8F3
:104650003F30092B08D90A213348FFF74CF9FFF7FF
:1046600089FD02A8FFF7D2FD9DF80C30D90722D5AD
:1046700094F83E30FBB90AF0A3FF2C4A0190904217
:1046800094BF0022012204A901A8FFF783FD0A219B
:104690002548FFF730F904A92348FCF72BF82448F4
:1046A000FFF78CFBFFF766FD2248A18FFFF7AAFBFF
:1046B0002148FFF783FB9DF80C3013F0010F94F8AD
:1046C0003E302BD0042B1DD92046A58F13F049FC7A
:1046D00090B1642D10D9A5F1320189B2A18720468D
:1046E00013F01EFDFFF746FDA18F1448FFF78AFB6C
:1046F0000A210D48FFF7FFF89DF80C2094F83E3092
:10470000D2070BD5013384F83E30012384F84030C2
:1047100009B030BD002B9AD0013B96E7002BF7D0B3
:10472000002384F83E30F3E734100020805101006C
:10473000D8C402089DC70208C0C70208C5C702083E
:1047400030B589B004460D46014602A8FFF7EAFCE1
:10475000029B013B03336BD8002D69D09DF80C20E0
:1047600094F83F30900765D5013384F83F3094F8D2
:104770003F30092B08D90A213348FFF7BCF8FFF76F
:1047800001FD02A8FFF742FD9DF80C30D90722D5A4
:1047900094F83E30FBB90AF013FF2C4A0190904286
:1047A00094BF0022012204A901A8FFF7F3FC0A210B
:1047B0002548FFF7A0F804A92348FBF79BFF2448EE
:1047C000FFF7FCFAFFF7DEFC2248A18FFFF71AFB88
:1047D0002148FFF7F3FA9DF80C3013F0010F94F81D
:1047E0003E302BD0042B1DD92046A58F13F0B9FBEA
:1047F00090B1642D10D9A5F1320189B2A18720466C
:1048000013F08EFCFFF7BEFCA18F1448FFF7FAFAF5
:104810000A210D48FFF76FF89DF80C2094F83E3000
:10482000D2070BD5013384F83E30012384F84030A1
:1048300009B030BD002B9AD0013B96E7002BF7D092
:10484000002384F83E30F3E734100020805101004B
:10485000D8C402089DC70208C0C70208C5C702081D
:1048600008B50F490F4B0A681B689A1A002A16DB15
:1048700003F5FA730B60002201210B48FFF7B0FD2E
:10488000002201210948FFF73BFE002201210848D0
:10489000FFF7C6FE002201210648FFF751FF08BDC1
:1048A0006C22002078350020502E0020942E00200D
:1048B000D82E00200C2E00204138C3B2192B2DD841
:1048C000174A1068D84010F0010028D0154AD25C71
:1048D00012B3154B19688B188A56A2F13001C9B270
:1048E000092906D92E2A08D15A78303A092A88BFD0
:1048F00000230E4A0120136070472D2A01D02B2A75
:104900000AD193F90110A1F13002D2B2092AF0D9EB
:104910002E2901D19A78E8E70023EAE700207047C2
:10492000A82200208A22002084220020AC2200201D
:1049300008B5FFF7C1FF20B1024B1868003018BF5F
:10494000012008BDAC220020034B186818B10A22D0
:10495000002121F09BBD7047AC2200202DE9F74FCC
:104960004E4B05461B7803F00703072B70D00DF064
:1049700061F90CF00DFB01200CF0F2F85820FFF764
:104980009BFF04465920FFF797FF80465A20FFF708
:1049900093FF81461DB9444504D1844202D10124CC
:1049A000A046A1463E4E3F4FB24697E80F0086E82C
:1049B0000F005220FFF7BCFF00286CD03A4B18685C
:1049C00050B30246934612F9016B36F020015ED0D7
:1049D000452E01D0652EF5D100218BF80010186806
:1049E00021F074FC05468BF800600021284614F085
:1049F00097FC88B914B9B8F1000F17D0CAF808505D
:104A00002946B86814F096FC30B1002302A941F899
:104A1000043D26480CF0B0FA14B100200CF040FC24
:104A2000B8F1000F02D001200CF03AFCB9F1000FF0
:104A300002D002200CF034FC0CF008FA0CF048F81C
:104A40000CF0BAFA03221A4B1A700CF0CFF914E0EA
:104A50004F20FFF76DFF98B1134B1B686BB1FFF749
:104A600073FF002883DBFFF76FFFFF2805DCFFF7EC
:104A70006BFF10F0FF0F3FF47AAF03B0BDE8F08F8B
:104A80004F20FFF719FF00283FF471AFF5E721F041
:104A90001DFC0546A9E7074DACE700BF3227002003
:104AA0005027002040270020AC220020582700205B
:104AB000100600200000A04038B50D4B1868A8B1C2
:104AC0000246154612F9014B34F020010AD0452C5C
:104AD00001D0652CF5D100212970186821F0F6FB72
:104AE0002C7038BDBDE8384021F0F0BB0020F8E75D
:104AF000AC22002070B501F0B5F8051E26DB44207D
:104B0000FFF7DAFED8B1FFF7D7FF002106464FF0D6
:104B1000010414F005FC08B14FF000040C4B002117
:104B20001C70304614F0FCFB48B9FFF7C5FF0021AC
:104B3000044614F0F5FB074B28B943F82540BDE8BF
:104B400070400CF0CBBF044A1A60F8E770BD00BF9C
:104B500089220020E82C00200000E03F10B501F081
:104B600081F8002813DB0024094B1857FFF7A4FE37
:104B700030B1FFF7A1FF14F02BFC064B43F82400E3
:104B80000134042CF0D1BDE810400DF04BBE10BD37
:104B900085C80208442D002010B501F063F80028F4
:104BA0000EDB0024074B1857FFF786FE28B1FFF7EE
:104BB00083FF054B03EB840358620134042CF1D1CD
:104BC00010BD00BF85C80208442D002008B5214B48
:104BD000214A1B681A423CD04220FFF76DFE40B1CB
:104BE0001E4B186818B10A22002121F00BFD1C4B46
:104BF00018615320FFF760FE18B1FFF75DFF184BF7
:104C000018645420FFF758FE18B1FFF755FF144BF6
:104C100058645820FFF750FE18B1FFF74DFF114BB5
:104C200018605920FFF748FE18B1FFF745FF0D4BFC
:104C300058605A20FFF740FE18B1FFF73DFF094BBF
:104C400098604520FFF738FE18B1FFF735FF054B98
:104C5000D86008BDA822002012008C03AC220020DE
:104C6000442D0020242D002010B51D4B1B6813F48B
:104C7000682F12D11B4C1C48616BFFF7DFF8A16B4A
:104C80001A48FFF7DBF8E16B1948FFF7D7F8BDE8E2
:104C900010400A211748FBF74DBC5320FFF748FE90
:104CA00020B1FFF709FF0F4B5863D8635020FFF77F
:104CB0003FFE18B1FFF700FF0A4B58635220FFF781
:104CC00037FE18B1FFF7F8FE064B98635420FFF744
:104CD0002FFE18B1FFF7F0FE024BD86310BD00BFE6
:104CE000A8220020442D002089C8020899C8020883
:104CF0009CC802083410002008B5194B1B685B03E0
:104D000004D5184B9A7C184B0AB91A6008BD17498C
:104D1000096888188A56A2F13001C9B2092905D953
:104D20002E2A0BD14278303A092A0BD80A220021C8
:104D3000186021F0ABFB0E4B1880E7E72D2A03D05B
:104D40002B2A01D00022E0E790F90110A1F13002F6
:104D5000D2B2092AEAD92E29F4D18278E3E700BF3A
:104D6000A82200208A220020AC22002084220020D9
:104D70001806002038B500F075FF041E47DB2D4BE8
:104D80002D4D1B6813F4802F04D02C4B9A7C2C4B98
:104D9000CAB91A60FFF71EF845212A48FEF7ABFD95
:104DA00004F130012748FEF7A6FD35F91410264816
:104DB000FFF728F825212348FEF79DFD0A21214809
:104DC000FEF799FD23E02149096888188A56A2F167
:104DD0003001C9B2092905D92E2A19D14278303AB1
:104DE000092A19D80A220021186021F04FFB00B2CD
:104DF00025F8140014F0ACF8154914F0FDF8154B23
:104E000053F8241014F0F8F8134B43F8240038BD7D
:104E10002D2A03D02B2A01D00022BAE790F90110E5
:104E2000A1F13002D2B2092ADCD92E29F4D182783C
:104E3000D5E700BFA8220020440600208A220020D7
:104E4000AC220020341000209FC8020884220020D9
:104E50000AD7233C042D00204806002010B5452029
:104E6000FFF72AFD002837D15020FFF725FD264CFB
:104E700010B1FFF721FEE0604920FFF71DFD28B1CA
:104E8000FFF71AFE214914F0B7F820614420FFF71C
:104E900013FD28B1FFF710FE1C4914F061F96061A1
:104EA000FEF798FFE1681A48FEF7C8FF2069174926
:104EB00014F056F901461748FEF7C0FF6069134920
:104EC00014F09AF801461448FEF7B8FFBDE8104008
:104ED0000A211248FBF72EBB114B1B68002BC3D0D5
:104EE000FFF732FD0028BFDBFFF72EFDFF2804DCB3
:104EF000FFF72AFD10F0FF0FB6D0FEF771FFBDE8F7
:104F000010400848FEF75ABF1C2F00200AD7233E46
:104F1000A7C80208ABC80208AFC8020834100020B6
:104F2000AC220020B3C8020870B55320FFF7C4FCC0
:104F30000546F0B12F4B186800283AD002461646B5
:104F400012F9014B34F0200130D0452C01D0652CF2
:104F5000F5D100213170186821F0B8F9347014F0DF
:104F600011FA254B00B21880B0FA80F0234B4009AB
:104F700018705020FFF7A0FC0446F0B11E4BB3F9A7
:104F8000003083B11B4B1B686BB1FFF7DDFC0028C1
:104F900011DBFFF7D9FCFF2805DCFFF7D5FCC0B219
:104FA000041C18BF0124154B1C7070BD21F08EF934
:104FB000D5E70020D3E70024F5E7002DF5D1FEF773
:104FC00009FF0F48FEF7FAFE0C4B0E4A18780E4BFD
:104FD000002814BF10461846FEF7F0FE064B0B489B
:104FE000B3F90010FEF70EFFBDE870400848FEF769
:104FF000E5BE00BFAC2200205A0600204C2F002046
:10500000C9C80208D3DE0208C5C80208DCC8020805
:10501000EDC8020810B5C0B1FEF7DCFE0D4C0E481D
:105020006169FEF70BFFA1690C48FEF707FFE16914
:105030000B48FEF703FF216A0A48FEF7FFFEBDE8B2
:1050400010400A210848FBF775BA20210648FBF7F3
:1050500071FAE3E7442D0020F1C8020896DF020848
:105060009DDF02089BE40208341000202DE9F04186
:1050700000F0F8FD011E4ADB264B274A1B681A4246
:1050800004D1BDE8F0410120FFF7C4BF0025234B48
:105090005857FFF711FC68B3214B1B6853B3032D1E
:1050A000204C2ED1FFF708FD1F49074614F042F9A6
:1050B000F8B13946206A14F053F8DFF870800646DC
:1050C0000146D8F80C0013F097FF3146C8F80C00E1
:1050D000206B13F091FFDFF858802063D8F80C00A4
:1050E00013F032FF314613F087FF14F071F9C8F85E
:1050F0000C0027620135042DC9D1BDE8F0410DF047
:10510000B5BBFFF7D9FC04EB85046061F2E7BDE8AD
:10511000F08100BFA822002010008003F8C8020818
:10512000AC220020442D00200000A041242D0020AE
:10513000142D00200023024A1370024A1370704796
:1051400061220020F40500200020FEF77FBCFEF75E
:10515000EFBB000070B55320FFF7AEFB204D28B128
:105160005320FFF7A9FB20BB00202870FEF732FE7A
:105170001C48FEF723FE2B786BB3002423462A78C5
:10518000E240D2070CD55E1CF6B21BB12C211648AA
:10519000FBF7D0F9154B53F82400FEF70FFE33460A
:1051A0000134052CEBD1BDE870400A210E48FBF715
:1051B000C1B90F4B1B68002BD6D0FFF7C5FB0028E9
:1051C000D2DBFFF7C1FBFF2803DCFFF7BDFBC0B25A
:1051D000CBE7FF20C9E70748FEF7F0FDE3E700BF94
:1051E00062220020FCC802083410002030C90208E6
:1051F000AC22002003C9020801200BF08BBC002068
:105200000BF088BC08B50021034809F03DFABDE861
:105210000840FEF799BB00BF44C9020838B55320C7
:10522000FFF74AFBF0B1364B1868D8B10246154675
:1052300012F9014B34F0200111D0452C01D0652C1E
:10524000F5D100212970186821F040F82C702D4903
:1052500013F0D2FE14F0BCF82B4B186038BD21F0CF
:1052600035F8F4E75820FFF727FB78B95920FFF706
:1052700023FB58B95A20FFF71FFB38B94520FFF729
:105280001BFB18B9BDE838400CF0AEBC0CF0D2FCEA
:105290005820FFF711FB68B11C4BD3F8802093F81E
:1052A0008C10012312688B401361194A137823F084
:1052B000010313705920FFF7FFFA68B1134BD3F8BD
:1052C000102193F81C11012312688B401361104ABE
:1052D000137823F0020313705A20FFF7EDFA002829
:1052E000BCD00A4BD3F8202293F82C120123126869
:1052F0008B401361064A137823F004031370ADE763
:10530000AC22002000007A44F005002060BC0208B6
:105310003327002038B5FEF75DFD4248FEF74EFD0D
:10532000414B424C1B6813F4802F1CD0404B997C9E
:10533000404B11B91960012014E03F4A106842182F
:105340004156A1F13000C0B2092805D92E294BD110
:105350005178303909294BD81A60FFF7F5FA00283F
:1053600054DA00202070354D2078354CFEF786FD4C
:105370003448FEF723FD2968206813F035FD014607
:105380003148FEF75BFD6968A06813F02DFD01460A
:105390002E48FEF753FDA968206913F025FD01464C
:1053A0002B48FEF74BFD2B48FEF708FD2968606887
:1053B00013F01AFD01462448FEF740FD6968E068D5
:1053C00013F012FD01462148FEF738FDA968606917
:1053D00013F00AFD01461E48FEF730FDBDE83840D7
:1053E0000A211D48FBF7A6B82D2904D02B2902D08D
:1053F00000221A609FE792F90100A0F13001C9B2C2
:105400000929A9D92E28F3D19178A2E7FFF79CFAB0
:10541000FF2890DCFFF798FAC0B2003018BF0120D7
:10542000A0E700BF4DC90208A822002034060020D2
:105430008A220020AC220020842200207C27002029
:105440001C0600205DC902083AE3020896DF020844
:105450009DDF020865C902083410002010B50C4613
:10546000FFF72AFA38B1054B186820B10A2200214B
:1054700021F00CF804B2204610BD00BFAC22002081
:1054800038B55020FFF718FA90B300215020FFF7ED
:10549000E5FF4FF0FF3105465320FFF7DFFF431CC8
:1054A000022B044624D868B2002821DBFEF728FA34
:1054B00018B1BDE83840FEF731BAEDB20CF0BAFBD6
:1054C00002212846FDF734FE621C0AD0631E5C42AE
:1054D0005C412846FDF7AEFEA04209D0FEF758FB1E
:1054E000F7E72846FDF7A6FEB0FA80F46409F0E776
:1054F00038BD0CF09FBB08B5FFF726FA002807DB84
:10550000FFF722FAFF2805DCFFF71EFAC0B208BD3C
:105510000020FCE7FF20FAE770B55320FFF708FAF8
:10552000A0B3FFF7E8FF05465020FFF701FA68B384
:10553000FFF70AFA0304044628D446B24920FFF7CD
:10554000F7F968B1124B1B687BB1FFF7D4FF60B964
:105550003046FEF7D5F940B1BDE87040FEF7DEB940
:105560004920FFF7A9F90028F2D0E4B20021204633
:10557000FDF7DEFD29462046FDF770FE2946304640
:10558000FDF706FF282E04BF024B1D7070BD00BF43
:10559000AC2200206C2F002008B50EF0E3FB09F0D0
:1055A000D5FF0CF021FB002108460EF039F94FF42D
:1055B0007A70FEF77BFCBDE808400021014809F045
:1055C00063B800BF6DC9020838B5244B1B685B0384
:1055D0000CD5234B9A7C234B4AB900201A602249F0
:1055E00013F00AFD13F0F4FE204B186038BD20497B
:1055F000096888188A56A2F13001C9B2092905D96B
:105600002E2A16D14278303A092A16D80246186056
:10561000154612F9014B34F020011BD0452C01D066
:10562000652CF5D100212970186820F04FFE2C70F0
:10563000D5E72D2A03D02B2A01D00022CDE790F9FF
:105640000110A1F13002D2B2092ADFD92E29F4D1FA
:105650008278D8E720F03AFEC1E700BFA8220020F8
:105660008A220020AC22002000007A445C22002024
:1056700084220020012208B5114B53201A70002209
:10568000104B1A70FFF718F9A0B10F4B1B688BB1C4
:10569000FFF75AF9002803DABDE8084001F0F8BF27
:1056A000FFF752F9FF2804DCFFF74EF910F0FF0F67
:1056B000F2D008BD5320FFF7FFF80028ECD0F8E740
:1056C000ED050020A7260020AC22002000210FF0CD
:1056D0006BBB09F0F5BF0BF0EFB90AF093BA00000D
:1056E00010B55320FFF7E8F80446A8B10E4B1B682D
:1056F00093B1FFF729F9002813DBFFF725F9FF28FD
:1057000005DCFFF721F9C0B2041C18BF01242046B4
:10571000BDE810400AF00CBB5320FFF7CDF8012480
:10572000F5E70024F3E700BFAC22002008B50BF03A
:10573000B7F930B1FEF74EFBBDE808400148FEF76F
:105740003DBB08BD7DC9020837B55220FFF7B4F84C
:1057500020B1154B1B6803B3FFF7CDFE054655205E
:10576000FFF7AAF820B1104B1B68C3B1FFF7C3FEC7
:1057700004464220FFF7A0F820B10B4B1B6883B111
:10578000FFF7B9FE8DF8060001A88DF804508DF8DA
:105790000540FEF7EBFB03B030BDFF25DFE7FF243C
:1057A000E7E7FF20EEE700BFAC22002037B500247A
:1057B00001250194114B1857FFF77EF818B101220B
:1057C000002501ABE2540134042CF3D145B101238F
:1057D0008DF804308DF805308DF806308DF80730DF
:1057E0009DF807309DF806209DF805109DF80400EF
:1057F00003B0BDE83040FEF72FBD00BF88C90208E6
:105800002DE9F0415320FFF757F8054600283CD01A
:10581000474E326822B1FFF76EFE051C18BF012506
:1058200000F020FA80464920FFF746F818B13468A6
:1058300014B1FFF760FE044600263E4BF7B29857BE
:10584000FFF73AF870B1022F15D0032F17D0012FB0
:105850000DD03CB9384885F0010180F84150C9B2FB
:1058600012F076FA0136042EE7D1BDE8F081002C63
:10587000F8D13248EFE7002CF4D13148EBE7B8F12A
:10588000000FF2DBEED12F48E5E758212E48FEF756
:1058900032F82E48FEF792FA274812F064FA2C4D9F
:1058A0002C4C00280CBF28462046FEF787FA0A2118
:1058B0002548FEF720F859212348FEF71CF8234815
:1058C000FEF77CFA1D4812F04EFA00280CBF28465D
:1058D0002046FEF773FA0A211B48FEF70CF85A21FE
:1058E0001948FEF708F81948FEF768FA144812F04C
:1058F0003AFA00280CBF28462046FEF75FFA0A2134
:105900001148FDF7F8FF45210F48FDF7F4FF0F4858
:10591000FEF754FA0B4812F026FA00280CBF28466E
:105920002046FEF74BFA0A210748FDF7E4FF9CE703
:10593000AC2200208CC90208502E0020942E00209A
:10594000D82E00200C2E002034100020A8C90208F8
:1059500090C902089CC902082DE9F0414920FEF7D0
:10596000E7FFF8B90026002701253C4B5FFA87F8CE
:10597000D857FEF7DDFF10B1FEF7E6FF00B284B2A4
:1059800084B3B8F1020F1FD0B8F1030F20D0B8F1E3
:10599000010F15D026B932488487214612F0C0FB8A
:1059A00000251FE0FEF7D0FF0028DBDBFEF7CCFF71
:1059B000FF2803DCFEF7C8FFC6B2D4E7FF26D2E714
:1059C000002EEDD12748E7E7002EE9D12648E3E78E
:1059D00000F048F9051E3EDBE2D1244821468487C9
:1059E00012F09EFB0137042FBFD1002D33D0582178
:1059F0001F48FDF780FF1A4B1E48998FFEF702FAE9
:105A00000A211B48FDF777FF59211948FDF773FF5D
:105A1000144B1848998FFEF7F5F90A211448FDF741
:105A20006AFF5A211248FDF766FF0F4B1148998F04
:105A3000FEF7E8F90A210E48FDF75DFF45210C4805
:105A4000FDF759FF094B0B48998FFEF7DBF90A2147
:105A50000748FDF750FFBDE8F08100BFB7C9020855
:105A6000502E0020942E0020D82E00200C2E002036
:105A700034100020BBC9020810B50C46FEF71CFF0D
:105A800068B10A4B1B6853B1FEF75EFF002808DBC4
:105A9000FEF75AFFFF2806DCFEF756FFC4B2204689
:105AA00010BD0024FBE7FF24F9E700BFAC22002073
:105AB00038B5214C214D58212046FDF71CFF2846C2
:105AC000FEF77CF91E4B93F84000FEF7E3F90A213C
:105AD0002046FDF710FF59212046FDF70CFF284610
